:020000040800F2
:10000000180C0020B1020008B9020008BB02000869
:10001000BD020008BF020008C10200080000000085
:10002000000000000000000000000000C302000803
:10003000C502000800000000C7020008C90200084D
:10004000CB020008CB020008CB020008CB0200085C
:10005000CB020008CB020008CB020008CB0200084C
:10006000CB020008CB020008CB020008CB0200083C
:10007000CB020008CB020008CB020008CB0200082C
:10008000CB020008CB020008CB020008CB0200081C
:10009000CB020008CB020008CB020008CB0200080C
:1000A000CB020008CB020008CB020008CB020008FC
:1000B00055490008CB020008CB020008CB0200081B
:1000C000CB020008CB020008CB020008CB020008DC
:1000D000CB020008CB020008CB020008CB020008CC
:1000E000CB020008CB020008CB020008CB020008BC
:1000F000CB020008CB020008CB020008CB020008AC
:10010000CB020008CB020008CB020008CB0200089B
:10011000CB020008CB020008CB020008CB0200088B
:10012000CB020008CB020008CB020008CB0200087B
:1001300000F002F800F092F80AA090E8000C824467
:100140008344AAF10107DA4501D100F087F8AFF244
:10015000090EBAE80F0013F0010F18BFFB1A43F0A5
:1001600001031847D8860000F8860000103A24BF23
:1001700078C878C1FAD8520724BF30C830C144BF0C
:1001800004680C607047000000230024002500264E
:10019000103A28BF78C1FBD8520728BF30C148BFEA
:1001A0000B6070476E2900F0CD82702900F00F843B
:1001B000662906F09480652906F09180672906F08B
:1001C0008E80612906F08D8003681B0A28BF41F0EC
:1001D0008001692900F07A82642900F0778275290C
:1001E00000F074826F2900F09C83782900F0DB8393
:1001F000E92900F03783E42900F03483F52900F081
:100200003183EF2900F09983F82900F0DA8303683D
:10021000DB0928BF41F08001632901F03D8173298A
:1002200001F04281E32901F04D81F32901F052816F
:10023000002070471FB500F082F801F0C9F90400F2
:100240000020002105F07CF9401C606000200021A6
:1002500005F060F9E0601FBD10B510BD01F08AF92E
:100260001146FFF7E7FF05F0DFF801F067FA03B486
:10027000FFF7F2FF03BC01F06BFA00000B49D1F865
:1002800000C04A685CF8043B1068184442F8040B4C
:100290008C4528BFA1F1DC0C8A4228BFA1F1DC0209
:1002A000C1F800C04A6020F000407047800500207F
:1002B0000948804709480047FEE7FEE7FEE7FEE7FA
:1002C000FEE7FEE7FEE7FEE7FEE7FEE70448054936
:1002D000054A064B70470000F54800083101000848
:1002E00018060020180C002018080020180800200C
:1002F0001CB50C46064B7B4469460090204600F036
:100300003AFA04460020694600F048FA20461CBD2F
:10031000A30400000B4910B5A1F17C020A4CC2E90C
:100320003712372106E000EB104342F82130074B2B
:1003300000FB03400B1EA1F10101F4DC10BD012004
:10034000E8E7000020050020E119D666CD0D010088
:1003500010B5203AC0F00B80B1E81850203AA0E860
:100360001850B1E81850A0E81850BFF4F5AF5FEA94
:10037000027C24BFB1E81850A0E8185044BF18C947
:1003800018C0BDE810405FEA827C24BF51F8043BEE
:1003900040F8043B08BF7047D20728BF31F8023B42
:1003A00048BF11F8012B28BF20F8023B48BF00F8D6
:1003B000012B70474FF0013C50F8042B51F8043BDF
:1003C0009A4221D1A2EB0C03934313EACC1317D129
:1003D00050F8042B51F8043B9A4215D1A2EB0C03C0
:1003E000934313EACC130BD150F8042B51F8043B80
:1003F0009A4209D1A2EB0C03934313EACC13DBD04E
:100400004FF00000704700BFD01A01BAB1FA81F175
:1004100001F0180122FA01F0CB40C1F12001DBB25A
:10042000C0B2C01A2CFA01F3D11A914311EAC311D8
:10043000E6D17047014900F099BB00008805002013
:1004400010B503681C1404EB21449BB289B2194413
:1004500094FBF2F302FB134394FBF2F401EB03432E
:1004600093FBF2F102FB113193FBF2F301E05B1E0F
:1004700011440029FBDB016003EB044010BDF0B523
:1004800004464FF0FF3585B0006804906068029024
:10049000A0680390E068019020690090666906F109
:1004A0008040B0F1004F7CD83C22002104A8FFF727
:1004B000C7FF3C22014602A8FFF7C2FF18220146EF
:1004C00003A8FFF7BDFF411E40F2B55201A8FFF798
:1004D000B7FF0C22074668460021FFF7B1FF414BEA
:1004E00000EB8700304400267B4411E0511A019153
:1004F0000099491C0229009102D00C2908D105E07D
:10050000810705D00199491C019101E0401C00962A
:100510000099019A595C9142E8DD0099012906D1C0
:100520001C2A04D1810702D00221CDE90016A0F1D6
:1005300046018B293CD2DDE90061002202E09F5C8C
:10054000521C3944B242FADB012E02DD820700D090
:10055000491E40F2B55340F26D16C21700EB92727D
:1005600092105A4300F0030303FB062283070A4458
:1005700000D1521E039E02EB4203049F06EBC3030D
:10058000029EC3EB031306EB8303174E33441E1482
:100590009BB2C6EB0616C3EB0313B60007EB83034F
:1005A00000E005E006EB134666F31F43360C02D06D
:1005B000284605B0F0BD80C4029E40C4039E40C4DE
:1005C000019E761C44F80C6B009E44E902600720F3
:1005D000521C92FBF0F600FB162084E8230018461C
:1005E000E7E70000C5800000A039CEFD70477047E6
:1005F000704710B500F016FB006810BD10B504463A
:1006000000F010FB046010BD70B5044685690068F9
:10061000C10601D5302600E02026C00707D070BDF6
:10062000D4E9012130469047206A401C20626D1EAB
:10063000F6D570BD70B5044685690078C00707D14E
:1006400070BDD4E9012120209047206A401C20621F
:100650006D1EF6D570BD09684A0501D540B27047D8
:10066000C905FCD500B2704709684A0501D5C0B27A
:100670007047C905FCD580B2704770B50C46054679
:10068000012A05D02878800600D5EA69002302E017
:10069000012305E05B1C934202D2E05C0028F9D103
:1006A000A869E618C01AA861286A18442862284672
:1006B000FFF7AAFF04E0D5E9012114F8010B9047E8
:1006C000B442F8D32846FFF7B5FF70BD2DE9F041DD
:1006D0000646002410687529314616A510D0FFF78C
:1006E000BAFF002802DA404213A507E031688A0702
:1006F00001D512A502E0490704D511A5012401E0A6
:10070000FFF7B2FF00210A2206F1240709E0B0FB3F
:10071000F2FCB0FBF2F302FB1C00303078541846B8
:10072000491C0028F3D123462A463046BDE8F04153
:1007300000F0C1BA000000002D0000002B000000F6
:100740002000000011680268006A530501D5087096
:100750000AE0D30501D5088006E0130603D5C217C9
:10076000C1E9000200E008600120704701694A1CED
:1007700002610878704700B58FB0CDE901310021E2
:10078000059105497944CDE903101146684600F00A
:1007900029F90FB000BD0000E5FFFFFF0A6802F86D
:1007A000010B0A60704700002DE9FF5F15468A467D
:1007B0000446DFF8AC80F8440027D8E900103E4634
:1007C000CDE9001010E03AF816106A4602A800F0D1
:1007D00085FE411C07D02178890603D5E2693918C6
:1007E00091420DD80744761C2078800602D5E06936
:1007F000B84205DDAE42E6DB3AF816000028E2D149
:10080000A069C01BA0612046FFF7FEFED8E90010DA
:10081000CDE90010002017E03AF818106A4602A847
:1008200000F05CFEB0F1FF3F81460BD000250DF1DA
:10083000080B05E0D4E901211BF8050090476D1C69
:100840004D45F7D308F10100B0428046E4DB206A51
:10085000384420622046FFF7EDFEBDE8FF9F000010
:10086000B67D00002DE9F0418046D21D22F007023E
:100870000025D2E90002F52915A614D0011E72F157
:10088000000106DA0023D0EB030063EB020211A69D
:1008900008E0D8F800108B0701D50FA602E0490741
:1008A00001D50EA601251146002408F1240704E015
:1008B00000F0BCF930323A55641C50EA0102F7D11D
:1008C0002B46324621464046BDE8F04100F0F3B9E0
:1008D000000000002D0000002B00000020000000A0
:1008E00030B4002100F1240408E002F00705D2082A
:1008F000303542EA4372DB086554491C52EA03056D
:10090000F3D10468002310A2250707D5A40600D45C
:1009100021B1C46901230DA2641EC46130BC00F082
:10092000CAB910B5044621461068FFF79DFE02467D
:100930002046BDE810400023D2E7D21D22F0070177
:10094000D1E90023CCE700000000000030000000E7
:10095000F0B40D460188090502D5214C7C4402E023
:100960001F4C7C440E34002100F1240608E002F004
:100970000F071209E75D42EA03721B097754491C0D
:1009800052EA0307F3D102780023120704D5702D31
:1009900006D009B1022311342246F0BC00F08BB915
:1009A00001231034F8E770B504460D46214610685F
:1009B000FFF75AFE024629462046BDE87040002354
:1009C000C6E7D21D22F00703D3E90023C0E703687E
:1009D000126843F0200303600823C3610023B7E7D4
:1009E000187C00002DE9F05F894604464FF0000AAC
:1009F000DFF874B1FB44C0F820A02046E1688847C6
:100A0000002874D0252806D0D4E901219047206A17
:100A1000401C2062F1E700265F462046E1688847D7
:100A20002028054607DB312D05D2781910F8200C57
:100A300008B10643F1E7B00701D526F00406C4F873
:100A40001CA00027C4F818A02A2D09D0284604F0BD
:100A500013FB38B304EB8708303DC8F8185019E091
:100A600059F8041B204604EB87029161E16888472E
:100A7000012F054618D1E069002820DA26F020066B
:100A80001DE0D8F8180000EB800005EB400030387E
:100A9000C8F818002046E1688847054604F0ECFADB
:100AA0000028EED1012F0AD02E2D08D12046E16872
:100AB00088477F1C0546022F46F02006C4DBA0694C
:100AC000002803DA404246F00106A061F00701D099
:100AD00026F010066C2D0BD0682D09D04C2D39D086
:100AE0006A2D35D0742D35D07A2D33D016E038E00C
:100AF000E1682F4620468847B842054609D16C2F49
:100B000026D04FF48060E1680643204688470546BA
:100B100004E06C2F1AD04FF4807006430DB3A5F19A
:100B20004100192802D8203546F400664A46294675
:100B3000204626604E46FFF735FB80B101280BD0DA
:100B4000F61D26F0070000F1080956E74020E4E70B
:100B50008020D8E70020D6E706F104094DE72846B3
:100B600052E7206ABDE8F09FA87B000070B50C46F4
:100B7000016800204A1C3ED03C22B1FBF2F302FB8C
:100B80001313B1FBF2F12360B1FBF2F302FB131379
:100B9000B1FBF2F118226360B1FBF2F302FB131315
:100BA000B1FBF2F146F2E0320A440721A360B2FB46
:100BB000F1F301FB132140F2B553B2FBF3F5A16150
:100BC000B2FBF3F103FB15228900B2F5B77F08D31E
:100BD0009B10521EB2FBF3F52944B2FBF3F503FB65
:100BE00015220F4BE261616189077B440CD03B2ADF
:100BF0000AD3521C08E02C21204600F08FFC012073
:100C0000E0600AE0521A401C195C9142FAD9521C69
:100C1000C4E903204FF0FF302062204670BD000081
:100C2000C379000000487047B405002030B5B0F12A
:100C30000A024FEA900E71F100034EEA817EB0EB9A
:100C40000E0061EB91014FEA101E4EEA017E10EB9F
:100C50000E0041EB11114FEA102E4EEA016E10EB1F
:100C60000E0041EB11214FEA104E4EEA014E10EBFF
:100C70000E0041EB1141401841F100014FEAD00054
:100C800040EA41704FEAD10110EB80054FEA810440
:100C900044EA907444EB01046D1944EB0404521BC4
:100CA000A3414FF0000348BF0A3200D530BD401CBD
:100CB00041F1000130BD2DE9F0470D4699469246BD
:100CC000044600F124080168880604D5E06921F093
:100CD0001001216000E00120A84201DD471B00E077
:100CE0000027A1697A1902EB0900081AA06120788F
:100CF000C00602D42046FFF787FC002608E0D4E9AE
:100D000001211AF806009047206A401C761C2062D8
:100D10004E45F4DB2078C0060AD52046FFF774FC68
:100D200006E0D4E9012130209047206A401C20626F
:100D3000381EA7F10107F4DC07E0D4E9012118F817
:100D400005009047206A401C2062281EA5F101057D
:100D5000F3DC2046FFF76EFC2078000602D5022067
:100D6000BDE8F0870120FBE770472DE9FF4F0C46F7
:100D70001E464FF0FF378BB0D2E90001DDF86080EE
:100D80000A908A46C1F30A5505B93D460021084636
:100D90004FF00000BAF1000F00F4400005DA00EB5C
:100DA00080004FF4400101EA50004FEA9059B9F138
:100DB000010F00DDB9460A9850EA4A000ED044F609
:100DC0001050A5F2FF3545432F14B8F1000F1ED087
:100DD0007542291E1EDDC9F100021CE0B8F1010FA9
:100DE0004FF0000001D0302103E0F24305E0215430
:100DF000401CB042FBDB30460022002121540B99FD
:100E0000C1F80880C1E900200FB0BDE8F08FBD1B1C
:100E10006D1CDEE74A4600DA694206A800F01CFCB9
:100E200006AB93E8070003AB83E8070050460A9936
:100E300000F094FC8DE80700A0F500501F380090EA
:100E40000398002D0ADD42F21F014A4608440023A0
:100E500003A90390684600F0FDFE09E0A0F50050EC
:100E60004A461F38002303A90390684600F007FF95
:100E70008DE807000004000C03D04FF0FF3041085C
:100E800000E01046B8F1000F03D000220092154692
:100E90001EE0751E05D4FFF7C9FE303262556D1E87
:100EA000F9D5B3460122084302D000227F1C04E09A
:100EB0002078302801D100227F1E002A099784D093
:100EC0001DE0112D07DAFFF7B1FE303262556D1CBF
:100ED00050EA0102F5D1084302D00098C8B10EE0F3
:100EE0000021681E05E0235C625C63542254401EAE
:100EF000491C8142F7DBAB46A81B401E099000202D
:100F000004F80B000B98099AC0F80880C0E9002B80
:100F10007AE711264FF0000857E72DE9F04F884691
:100F20000446D21D22F0070191B0D1E90001CDE9BC
:100F30000A0103F06BFD02460B98C00F01D02D2073
:100F400007E02068810701D52B2002E0202101EA7B
:100F5000C000032A099001D0072A05DB0346414659
:100F6000204600F039FB0BE12078800601D5E069CE
:100F700000E00620B8F1650F814606D0B8F1660F93
:100F800018D0B8F1670F70D131E00020B9F1110F1E
:100F9000009001DB112301E009F101030AAA01A974
:100FA0000CA8FFF7E2FEDDE90C70002609F101054F
:100FB000834647E001204B4600904FF000470AAAC5
:100FC00001A90CA8FFF7D1FEDDE90DB00C995D4633
:100FD000002610B909F101000D18B9EB050003D482
:100FE000C0F1FF3609F10105A5EB09002BE0B9F1CD
:100FF000010F01DA4FF001090020B9F1110F009043
:10100000484601DD112300E003460AAA01A90CA805
:10101000FFF7ABFEDDE90C704D46002683462078D5
:1010200000070AD4AB4500DA5D4601A8012D04DDB6
:10103000411911F8011C302907D04F4502DA17F188
:10104000040F04DA012082460FE06D1EEEE7002F48
:1010500002DCED1B3E4403E0781CA84200DD7D1C51
:10106000B81B00F1010A4FF000472078000703D4B5
:10107000AA4501DB4FF0FF3A0021B7F1004F0DF117
:1010800043088DF8431024D002202B23002F01DACF
:101090007F422D230A21021EA0F1010000DC5FB176
:1010A00097FBF1FC97FBF1F201FB1C7C17460CF15E
:1010B000300C08F801CDEEE7A8F10100037021889B
:1010C000090501D5452100E06521A0F1010800F8DE
:1010D000011C09980FA9A1EB0807FF1D00B1012011
:1010E000411901EBEA70A1693844081A401EA06159
:1010F0002078C00602D42046FFF786FA099828B166
:10110000D4E901219047206A401C20622078C00663
:1011100022D52046FFF778FA1EE0002E04DBB34507
:1011200002DD01A8805D00E03020D4E90121904774
:10113000206A401C2062761CAAF101005FEA000AC6
:101140000AD100F045FAC0680168405CD4E9012189
:101150009047206A401C2062281EA5F10105DCDCB6
:1011600007E0D4E9012118F8010B9047206A401CE0
:101170002062381EA7F10107F3DC2046FFF75AFA78
:10118000032011B041E600002DE9F04F04460D4662
:10119000D21D22F0070089B0D0E9009748463946B1
:1011A00003F034FC0246F80F01D02D2307E020683D
:1011B000810701D52B2302E0202101EAC0038DF82D
:1011C00020300BB1012000E00020032A824601D02C
:1011D000072A04DB2946204600F0FEF93FE120788B
:1011E000800601D40D2500E0E569C7F30A560D2DF0
:1011F00049DA00214FEA175B08464FF00000002F44
:1012000000F4400007DA00EB80004FF4400100EBEF
:10121000D07001EA60008115012901DD4FF0FF3136
:1012200000224FEA850CBCF1180F06D31346ACF12F
:1012300018004FF08052C24003E04FF4801323FAAD
:101240000CF30CF10C0CBCF1200F04D3ACF1200C0E
:1012500009FA0CF001E007FA0CF000294FF0004801
:1012600001DD18B90FE00ED140450CD319EB02098E
:101270005F4121B9404502D19F4329EA0209BBEBF6
:10128000175F00D0761C2088000502D57B48784483
:1012900002E07A487844193808AA302302F80A3064
:1012A000037C0AF10101002E0AF1020A53546A4636
:1012B00002DC4FF0300101E04FF031014FF0010846
:1012C0008DF8001002D0A6F2FF3603E059EA47017C
:1012D00000D06B4E002D02DC2178090704D54FF0B9
:1012E00002082E218DF80110C44600210BE0C7F33F
:1012F00003433F01C35C491C6D1E02F808300529F9
:1013000008F1010801DA002DF1DC00210CE000EB0E
:101310001973491C1B786D1E082902F808304FEA22
:10132000091908F1010801DA002DF0DC21688B06AB
:1013300002D516E0A8F10108E04505DD02EB08033F
:1013400013F8013C302BF5D0B8F1000F09DD02EBAA
:10135000080313F8013C2E2B03D1090701D4A8F18F
:101360000108002D05DD3E2102F808106D1E08F170
:101370000108407C002E02F8080008F1010804DA98
:101380002D20764202F8080002E02B2002F8080027
:101390000A214FF47A70864208F101080BDB96FBB4
:1013A000F0F3303302F8083096FBF0F308F101084F
:1013B00000FB136601E0642E0CDB642096FBF0F367
:1013C000303302F8083096FBF0F308F1010800FB17
:1013D000136601E00A2E06DB96FBF1F0303002F8CE
:1013E000080008F1010896FBF1F001FB10603030B5
:1013F00002F80800A16908F1010808EB050202EBF8
:101400000A00081AA0612078C00602D42046FFF71F
:10141000FBF8216A08AE01EB0A00206204E0D4E97F
:10142000012116F8010B9047BAF1010AF7D2207892
:10143000C00602D52046FFF7E7F86E4609E016F829
:10144000010B3E280FD0D4E901219047206A401CAF
:101450002062B8F10108F2D22046FFF7EBF809B09C
:101460000320BDE8F08F206A2844206203E0D4E91D
:101470000121302090476D1EEBD3F8E70175000085
:1014800002FCFFFF10B5436913B1AFF3008001E028
:10149000FFF7F3F8012010BD127800F124010A7063
:1014A00000224A700122EDE711684FF0FF32E9E7B0
:1014B00010B5436913B1AFF3008001E0FFF774F991
:1014C000012010BD128800F1240182840022C28410
:1014D0000122EDE711684FF0FF32E9E770B51646DB
:1014E0000C46054600F06CF8036893F801010128EA
:1014F00006D0FF2C0FD8185D68B101202C7070BD8C
:10150000D3F807013246214603F207130344284665
:10151000BDE8704018474FF0FF3070BD4FF000023B
:1015200000B5134694469646203922BFA0E80C50D9
:10153000A0E80C50B1F12001BFF4F7AF090728BFB4
:10154000A0E80C5048BF0CC05DF804EB890028BF30
:1015500040F8042B08BF704748BF20F8022B11F059
:10156000804F18BF00F8012B7047000000487047FB
:10157000B40500207546FFF7F9FFAE460500694641
:10158000534620F00700854618B020B5FEF79EFEB2
:10159000BDE820404FF000064FF000074FF0000874
:1015A0004FF0000B21F00701AC46ACE8C009ACE8F5
:1015B000C009ACE8C009ACE8C0098D46704700001E
:1015C00010B500F005F8001D10BD00BF753F00000C
:1015D00000487047D40500202DE9F0411F4604461D
:1015E00003260168072A01F4006004DB08B116A590
:1015F00005E016A503E008B115A500E015A521F04A
:1016000010002060A069C01EA0610FB1401EA06143
:101610002046FEF7F9FF4FB1D4E901213846904743
:10162000206A401C2062C01C206206E0206AFAE7A3
:10163000D4E9012115F8010B9047761EF8D2204617
:10164000FEF7F8FFBDE8F0814E414E006E616E007E
:10165000494E4600696E66002DE9F0478146164600
:101660008AB0354878440DC88DE80D00324878447A
:10167000801C03AC0DC884E80D0041F69B30084483
:10168000372190FBF1F290FBF1F5A5F1800501FB0C
:1016900012041B3C02D56442012000E00020DFF868
:1016A00098A080460027FA44AAF1BE0A0EE0E0079F
:1016B0000AD03246684607EB470101230AEB810155
:1016C00000F0DDFA8DE8070064107F1C002CEED1DD
:1016D000194F7F44AE3F19E0E80715D007EB04101F
:1016E0000DF1180A90E80E008AE80E00C068F0427A
:1016F00001D1981908903246012306A903A800F0E9
:10170000BEFA03AB83E807006D10641C002DE3D123
:101710004FF0010332466946B8F1000F03A802D02A
:1017200000F098FA01E000F0AAFAC9E90001C9F84E
:1017300008200AB0BDE8F087BC71000010B504466F
:10174000AFF300802046BDE81040FEF790BD704723
:1017500001491820ABBEFEE7260002005FEA400CFC
:1017600008BF91F0000F4FEA8C234FEAC12243EAF1
:1017700051514FEA1C5018BF00F5F0404FEA3000BD
:1017800018BF41F000415FEA6C5C00F02980BCF1B9
:10179000FF3F08BF40F080407047130C06BF1204A3
:1017A0004FF0100C4FF0000C130E04BF12020CF19E
:1017B000080C130F04BF12010CF1040C930F04BFAB
:1017C00092000CF1020CD30F04BF52000CF1010C7B
:1017D00011464FF00002A0F11F00A0EB0C00704773
:1017E00011F0004F08BF704731F000413FF4D5AF12
:1017F0000B0C06BF09044FF0100C4FF0000C0B0E41
:1018000004BF09020CF1080C0B0F04BF09010CF115
:10181000040C8B0F04BF89000CF1020CCB0F04BF2A
:1018200049000CF1010CCCF12003A0EB0C0022FAD2
:1018300003F302FA0CF241EA030100F101007047E0
:1018400020F07F4C80EA030023F07F47ACEB0703D6
:1018500003F57C5300F0004003F1FF032DE98049BC
:101860004FEA154B09B44FEA144325EA0B4E24EA1C
:1018700003480FF2042606EB132749083E785FEA77
:10188000320203FB0667C7F5000707FB06F64FEABF
:1018900054374FEAD64606F1020607FB066CCCF138
:1018A000005C4FEA1C472CEA074C07FB06F40CFBD4
:1018B00006F504EB15464FEA961634BF00204FF0AC
:1018C00000404FEAD13706FB07FC4FEA1C4C0CFBEB
:1018D0000BF7D21B03FB0CF761EB07010CFB0EF7B8
:1018E000B0EB074072EB17420CFB08F734BFA2EBDA
:1018F0000742B2EB074261EB17414FEA0C444FEA53
:10190000910706FB07FC4FEA1C4C0CFB0BF7B0EBF6
:10191000C74072EB573203FB0CF734BFA2EBC74250
:10192000B2EBC74261EB57310CFB0EF7B0EBC700CF
:1019300072EB57720CFB08F734BFA2EBC702B2EB95
:10194000C70261EB5771039F4FEA816141EA92112F
:1019500004EBCC044FEAD1374FEA826206FB07FC66
:1019600042EA90124FEA80604FEA1C4C0CFB0BF7E6
:10197000D21B03FB0CF761EB07010CFB0EF7B0EB7E
:10198000074072EB17420CFB08F734BFA2EB07428B
:10199000B2EB074261EB17414FEA8C554FEA9107D2
:1019A00004EB9C2406FB07FC4FEA1C4C0CFB0BF7DA
:1019B000B0EBC74072EB573203FB0CF734BFA2EB1E
:1019C000C742B2EBC74261EB57310CFB0EF7B0EBED
:1019D000C70072EB57720CFB08F734BFA2EBC702CB
:1019E000B2EBC70261EB577115EB4C254FEA8161F1
:1019F00041EA92114FEA82624FEAD13742EA9012ED
:101A000006FB07FC44F100044FEA80604FEA1C4CDF
:101A10000CFB0BF7D21B03FB0CF761EB07010CFB74
:101A20000EF7B0EB074072EB17420CFB08F734BF20
:101A3000A2EB0742B2EB074261EB174115EB1C1515
:101A40004FEA813141EA92414FEA823242EA9042C2
:101A50004FEA80304FEA0C7644F1000448EA034331
:101A60004EEA0B484FF0000EB2EB080C71EB030787
:101A700024BF624639464EEB0E0E4FF0000B0018A5
:101A8000524149414BEB0B0BB2EB080C71EB0307D6
:101A90007BF1000B24BF624639464EEB0E0E4FF031
:101AA000000B0018524149414BEB0B0BB2EB080CF9
:101AB00071EB03077BF1000B24BF624639464EEB06
:101AC0000E0E51EA020718BF46F0010616EB0E761D
:101AD00055F1000254F1000103D5BDE88901BDE8CC
:101AE0000088BDE88901BDE80048B619524141EBC4
:101AF0000101A3F10103704780807F7E7D7C7B7AAA
:101B00007978777676757473727171706F6E6E6DA9
:101B10006C6C6B6A6A69686867666665646463634F
:101B200062616160605F5F5E5E5D5D5C5C5B5B5AD5
:101B30005A59595858575756565555555454535342
:101B400052525251515050504F4F4F4E4E4D4D4D9D
:101B50004C4C4C4B4B4B4A4A4A49494948484847E8
:101B60004747474646464545454444444443434326
:101B70004342424242414141002B9C4630D47700CF
:101B80002BD01CB54FEA370703B44FF010004FF0CD
:101B90001001BAF1000F06D0BCF1000FDCBF40F01D
:101BA000080040F008014FF000000FBCBDE81040F5
:101BB0000BF1010BBBF1010F08BF5FEA170722BF52
:101BC00012F1010211F101014FF0004143F1000354
:101BD00000F0004043EA00007047F9D35708D0E70F
:101BE00046EA064613F1400F4FEA16461FDD13F191
:101BF000200FDFBF16430A46002120335B42BED0D0
:101C0000C3F1200746EA064602FA07F74FEA1646EE
:101C100046EA0706C3F1200722FA03F201FA07F7A2
:101C200021FA03F14FF0000342EA0702A7E746EA70
:101C3000020646EA06464FEA164646EA0106BCBFD9
:101C400046EA0646360C4FF000034FF000024FF014
:101C5000000194E72DE9804C9A46934670B491E8D0
:101C6000380007C831EA400C48BF34EA430C03D5BA
:101C7000FFF7E6FDFFF780FFF0BCBDE8008C2DE923
:101C8000804C9A46934670B491E8380007C810F02B
:101C9000804F08BF13F0804F03D100F005F8FFF725
:101CA0006BFFF0BCBDE8008C20F07F4780EA0300AA
:101CB00023F07F4C07EB0C03A3F57C5300F00040AE
:101CC000A3F1FE0392F0000F00F0B38095F0000F37
:101CD00000F077802DE901494FEA11404FEA1446A0
:101CE00021EA004800FB06FC24EA064708FB06F64A
:101CF00007FB08F800FB07F718EB06484CEB164CFF
:101D00004FEA124B18EB07484FEA15464CEB1740C9
:101D100022EA0B4E0BFB06FC25EA06470EFB06F6F5
:101D200007FB0EFE0BFB07F71EEB064E4CEB164CAB
:101D30004FF000061EEB074E4CEB174B18EB0B0851
:101D400040F1000018EB0E0B58EB000840F10000CA
:101D50008F1A4FF000013CBFC943661B14BFB5EB9F
:101D6000040C00213CBFC943F61B4FEA17444EEA5E
:101D70008E0E27EA04454FEA1C4704FB07622CEA53
:101D8000074C05FB07F70CFB05F604FB0CFC16EBF8
:101D9000074642EB174216EB0C4642EB1C421BEB8C
:101DA000060658EB0202414146EA9E0601D5BDE80F
:101DB0000189B619524141EB0101A3F10103BDE8CC
:101DC00001894FEA14454FEA114724EA054621EA02
:101DD000074C05FB07F406FB07F70CFB06F105FBB8
:101DE0000CFC11EB074144EB17444FEA124711EB8F
:101DF0000C4144EB1C4422EA074C05FB07F206FBAE
:101E000007F70CFB06F605FB0CFC16EB074642EB4E
:101E1000174216EB0C4642EB1C456A1854F10001C0
:101E200048BF7047B619524141EB0101A3F10103CC
:101E3000704795F0000F37D04FEA11424FEA144730
:101E400021EA024624EA074C02FB07F106FB07F7EA
:101E50000CFB06F402FB0CFC14EB074441EB1741AE
:101E60004FEA154714EB0C4441EB1C4125EA074CA3
:101E700002FB07F506FB07F70CFB06F602FB0CFC62
:101E800016EB074645EB174516EB0C4645EB1C4297
:101E9000121951F1000148BF7047B619524141EB88
:101EA0000101A3F1010370474FEA14454FEA1147BE
:101EB00024EA054621EA074C05FB07F106FB07F774
:101EC0000CFB06F24FF0000605FB0CFC12EB074280
:101ED00041EB174112EB0C4251EB1C4148BF7047DC
:101EE000921841EB0101A3F1010370472348806977
:101EF00040F40070214988610846406840F4004081
:101F000048600846406820F4804048601C480068EB
:101F100020F00F001A4908601A48006820F4807009
:101F200018490860081D006840F00200091D08609B
:101F30000846006820F400600860081D006820F072
:101F40000700091D08600846006840F001000860AD
:101F50000C482830006820F470000A4928310860D5
:101F600008483030006820F01F0006493031086012
:101F70000846006840F00A00086070470010024000
:101F800000080140042401402DE9F0410849086897
:101F900003F09AFD06464FF06632064B03F0A8FDAB
:101FA00004460022044B03F0C3FBBDE8F0810000AF
:101FB0004C24014066660A4000FEAF4010480068AD
:101FC00040F001000E4908600846006840F0040037
:101FD000086000BF0A48006800F004000028F9D13A
:101FE0000748006840F001000549086000BF044848
:101FF0000838006800F002000028F8D070470000A0
:102000000824014000B5034603E04FF47A7000F065
:1020100013F8181EA3F101018BB2F6D100BD10B563
:10202000044603E04FF47A70FFF7ECFF201EA4F1A2
:1020300001018CB2F6D110BD00EBC001C9004FF018
:10204000E02251611146096941F00501116100BFAB
:102050004FF0E021096901F480310029F8D04FF0F8
:10206000E021096921F001014FF0E0221161704780
:1020700010B517E001F018F802F094FA02F0E4F954
:1020800001F0DEFF02F0EEF802F0FEF801F02EFCA7
:102090000549064800F0D4FA0446012C01D100207D
:1020A00010BD00BFE6E70000860000209800002079
:1020B0002F480088401C2E4908802E480088401C6C
:1020C0002C4908802C480088401C2B49088028484F
:1020D0000088B0F57A7F07DB002025490880274873
:1020E0000068401C254908602248008814281ADB33
:1020F00000202049088022480088401C2049088090
:1021000020480078401C1F4908701D480088FF289F
:1021100002DD00201A4908801A4800788F2802DD65
:102120000020184908701448008832280DDB002070
:102130001149088014480078401C1349087008466B
:102140000078C82801DD00200870104800780128B8
:102150000DD10F480088401C0D49088008460088B2
:10216000B0F57A7F03DD00200880084908707047C9
:102170009C0000209E000020A0000020780000208D
:102180007C0000207E0000208000002081000020D4
:102190008400002038B552E000F080FA044624B3F1
:1021A000012C0BD126480068401E254908600846CE
:1021B0000068002819DC0220086016E0022C0BD110
:1021C0001F480068401C1E49086008460068022835
:1021D0000BDD0120086008E0032C06D100F064FF4D
:1021E00001F084FB1648006838BD154800680128D6
:1021F00002D0022816D10AE001F0E4FF10232022C9
:102200003021002001F056F901F070FB0BE001F0E5
:10221000D9FF102320223021602001F04BF901F07A
:1022200065FB00E000BF00BF0020009002E00098C6
:10223000401C00900098B0F57A7FF8DB00BFABE758
:10224000200000202DE9F0410124A71E68E000F0E5
:1022500025FA05460026002D2BD0012D04D1641E41
:10226000002C0FDC03240DE0022D04D1641C032C90
:1022700008DD012406E0032D04D100F015FF01F074
:1022800035FBE6B2AEB1012E02D10020BDE8F081EF
:10229000022E06D100F0B8FA0A20FFF7B3FEF71EAF
:1022A00007E0032E05D100F0B9FA0A20FFF7AAFED5
:1022B000371FBC4230D0012C04D0022C0FD0032C8D
:1022C00027D119E000F0F0FE02F060F810231A4662
:1022D0000021084601F0EEF801F008FB1AE000F0DA
:1022E000E3FE02F053F8182324221421084601F0DB
:1022F000E1F801F0FBFA0DE000F0D6FE02F046F83E
:1023000018231A461421482001F0D4F801F0EEFAFF
:1023100000E000BF00BF27460A20FFF773FE00BFA2
:1023200095E7000070B552E000F0B8F9044674B3C8
:102330000025012C0BD126480068401E2449086066
:1023400008460068002818DC0220086015E0022C0E
:102350000BD11F480068401C1D49086008460068F2
:1023600002280ADD0120086007E0032C05D100F0F7
:102370009BFE01F0BBFA164805783DB1012D01D155
:10238000002070BD022D01D1FFF772FE00BF104882
:102390000068012802D0022816D10AE002F012F8E3
:1023A00010231A460021084601F084F801F09EFA35
:1023B0000BE002F007F8102350221946002001F02C
:1023C00079F801F093FA00E000BF00BF00BFABE76F
:1023D0003C00002010B511E000F060F90446032C29
:1023E00005D100F061FE01F081FA002010BD00F07F
:1023F0005BFE02F001F801F079FA00BFECE70000A3
:1024000010B51948006820F4806017490860084634
:10241000006840F4006008600A20FFF70DFE1248D3
:10242000006820F40060104908600A20FFF704FEED
:102430000D48006840F480600B4908600A20FFF7EF
:10244000FBFD0948006820F48060074908600A2005
:10245000FFF7F2FD0448006840F40060024908609C
:102460000A20FFF7E9FD10BD0C0C01400B48806904
:1024700040F00800094988610948006840F44C5060
:10248000074908600846006820F4084008600846CC
:10249000006840F488400860704700000010024067
:1024A000040C014010B51048006820F480600E490B
:1024B00008600846006840F4006008600A20FFF7E2
:1024C000BBFD0948006840F48060074908600A20A5
:1024D000FFF7B2FD0448006820F4806002490860FC
:1024E0000A20FFF7A9FD10BD0C0C014070B50024B7
:1024F000002526E01548006820F480601349086034
:102500000A20FFF799FD1148006840F480600F49E8
:1025100008600A20FFF790FD6006040E0B48001FBC
:10252000006800F4006008B144F001040748006846
:1025300020F48060054908600A20FFF77DFD681CD3
:10254000C5B2082DD6DB204670BD00000C0C014042
:1025500070B50446002536E01C48006820F4806011
:102560001A4908600846006820F4006008600A20E4
:10257000FFF762FD04F0800030B11448006840F4B9
:1025800000601249086005E01048006820F400600F
:102590000E4908600A20FFF74FFD0C48006840F420
:1025A00080600A4908600A20FFF746FD0748006876
:1025B00020F48060054908600A20FFF73DFD6006B1
:1025C000040E681CC5B2082DC6DB70BD0C0C0140A2
:1025D00010B50C48006840F480600A49086008465D
:1025E000006840F4006008600A20FFF725FD0548F8
:1025F000006820F40060034908600A20FFF71CFD12
:1026000010BD00000C0C014010B50C48006840F4EF
:1026100080600A4908600846006820F4006008608D
:102620000A20FFF709FD0548006840F400600349EF
:1026300008600A20FFF700FD10BD00000C0C0140EF
:1026400070B505460C46A878217888421EDD2878AA
:10265000A17888421ADAE8786178884216DD6878CD
:10266000E178884212DA00F01FFD082308A2182141
:102670001C2001F059F801F039F90120FFF7CFFCD7
:1026800000F012FD01F032F9012070BD0020FCE7DE
:1026900047616D65204F766572000000054800783F
:1026A00030B1044801780020024A10700846704793
:1026B0000020FCE70C0000200B48006800F002003E
:1026C00008B9012070470948006800F0400008B9C7
:1026D0000220F7E70548006800F0100008B9032061
:1026E000F0E70020EEE70000080C01400808014078
:1026F0001F48806940F00C001D4988611D48006832
:1027000020F0F0001B4908600846006840F0800097
:10271000086018480C30006840F0020015490C3180
:1027200008601548006820F070601349086008468A
:10273000006840F0006008600F480C30006840F00E
:1027400040000D490C3108600B48006820F47020EF
:10275000094908600846006840F4002008600648FF
:102760000C30006840F0100003490C3108607047DD
:1027700000100240000C01400008014000B50F4865
:102780000078401C0D49087008460078642813DB67
:10279000002008700A4800780A490870FFF78CFF8B
:1027A000074908700748007830B10846007818B922
:1027B000044800780449087000BD00000D000020A6
:1027C0000E0000200F0000200C00002000B50C4877
:1027D000806940F004000A4988610A48006820F0D6
:1027E0007040084908600846006820F040400860D2
:1027F0000846006840F04050086000F005F800BD51
:1028000000100240040C01400348006840F40040FE
:1028100001490860704700000C0C01400348006843
:1028200020F4004001490860704700000C0C014092
:102830002DE9FC5F0520FFF7E5FB62486249634B29
:10284000634ACDE900106349634800F0DFF85F4850
:10285000B0F9000003F0EAFB05466048016828462D
:1028600003F0FCFB04465E480168204603F060FB71
:102870005C4908605448B0F9000003F0D7FB0546F6
:1028800056480168284603F0E9FB044656480168AB
:10289000204603F04DFB554908604A48B0F9000056
:1028A00003F0C4FB05464D480168284603F0D6FBFB
:1028B00004464F480168204603F03AFB4D49086042
:1028C0004348B0F9000003F0E8F8804689464249E1
:1028D000B1F90010484203F0E0F8824642464B4608
:1028E00002F0E2FC06460022434B03F001F90446E5
:1028F00042480CC8204602F01BFFCDE9000102F05F
:1029000035FE3F4908603248B0F9000003F0C5F8D1
:1029100006460F462F48B0F9000003F0BEF83246D5
:102920003B46CDE9000102F0BFFC04460022324BD9
:1029300003F0DEF8804631480CC8404602F0F8FE4D
:10294000824602F013FE2F4908602F4801684FF0BD
:102950007E5003F04FFC06462A480168304603F0DB
:102960007DFB04461F4801682748006803F076FB9A
:102970000546214603F0DCFA19490860224801683F
:102980004FF07E5003F036FC06461D480168304685
:1029900003F064FB0446154801681B48006803F017
:1029A0005DFB0546214603F0C3FA0F490860114854
:1029B00001681548006803F051FB0D490860BDE847
:1029C000FC9F00004A000020480000204600002034
:1029D0004400002042000020400000207000002041
:1029E000600000204C000020640000205000002007
:1029F0006800002054000020008066409000002005
:102A00005C000020580000206C0000202DE9F047F9
:102A100004460D4616461F46DDE908893C2000F0B5
:102A20007CF882463B2000F078F84AEA002000B2A9
:102A300020803E2000F071F882463D2000F06DF8C5
:102A40004AEA002000B22880402000F066F8824662
:102A50003F2000F062F84AEA002000B230804420B3
:102A600000F05BF88246432000F057F84AEA002065
:102A700000B23880462000F050F88246452000F031
:102A80004CF84AEA002000B2A8F80000482000F004
:102A900044F88246472000F040F84AEA002000B29D
:102AA000A9F80000BDE8F08710B5FFF7DFFC0121B1
:102AB0006B2000F050F800216C2000F04CF804214D
:102AC000192000F048F806211A2000F044F81821D7
:102AD0001B2000F040F818211C2000F03CF810BD2D
:102AE00010B519E0FFF7DAFD0446032C05D100F01C
:102AF000DBFA00F0FBFE002010BD00F0D5FAFFF776
:102B000097FE01F007FD10231A460021084600F049
:102B1000D1FC00F0EBFE00BFE4E770B50446FFF720
:102B200057FDD020FFF714FDFFF76AFC2046FFF7A2
:102B30000FFDFFF765FCFFF74BFDD120FFF708FD08
:102B4000FFF75EFCFFF7D2FC0546FFF7ABFCFFF793
:102B50005BFD284670BD70B505460C46FFF738FD95
:102B6000D020FFF7F5FCFFF74BFC2846FFF7F0FC01
:102B7000FFF746FC2046FFF7EBFCFFF741FCFFF7B1
:102B800043FD70BD38B500243BE000F08DFA1E48CF
:102B90000078012811DB1C480078401E1B4901EB1E
:102BA000C010E20002F11001194A00901278A2F15F
:102BB000300020231A4600F013FD1448124909780A
:102BC00000EBC1100090E00000F1100120231A4634
:102BD0000F48007800F004FD0C490B480078401CB9
:102BE00001EBC0100090E00000F1100120231A4614
:102BF00007480078303000F0F3FC00F077FE601CEE
:102C0000C4B2062CC1DD38BD19000020177E0008B3
:102C10001B000020F8B54448007878B94348007894
:102C2000401E4349087041480078401E41490870E1
:102C300000204149087001203B49087073E0FFF70C
:102C40002DFD05463D48007885425DD0002D5BD0C6
:102C5000002436480068471E012D0BD13348006818
:102C6000401E3249086008460068002818DC07202A
:102C7000086015E0022D0BD12C480068401C2B4940
:102C800008600846006807280ADD0120086007E0A0
:102C9000032D05D100F008FA00F028FE234804783F
:102CA00022480068461EF1B2F8B201F09FF81CB34A
:102CB000012C01D10020F8BD022C04D1FFF762FFE6
:102CC00001F048FD1FE0032C04D1FFF75BFFFFF785
:102CD000B9FA18E0042C04D1FFF754FFFFF700FF06
:102CE00011E0052C04D1FFF74DFFFFF71BFB0AE0B5
:102CF000062C02D1FFF746FF05E0072C03D1FFF7B2
:102D000041FFFFF767FB00BF0C48057000F018F8A3
:102D10000020009002E00098401C00900098B0F560
:102D20007A7FF8DB00BF8AE72C0000202800002013
:102D3000190000201A000020180000202D0000209B
:102D400008B500F0B1F958482C231A460A21009022
:102D50002A2000F045FC55480078554909788842FA
:102D600012DA5448007854490978401A51490870D9
:102D70000846007808BB4D480078401C4B49087055
:102D800030204C49087018E04848007848490978D4
:102D9000884212DD47480078474909780844454988
:102DA000087008460078602807D140480078401E27
:102DB0003E49087030203F4908703C48007801289F
:102DC00014DB3A480078401E07280FDA37480078AD
:102DD000401E3A4901EBC010364900900978A1F134
:102DE000300020231A46102100F0FAFB2F4800780B
:102DF000022814DB2D480078801E07280FDA2B48A4
:102E00000078801E2D4901EBC0102A4900900978F6
:102E1000A1F1600020231A46102100F0E1FB2348B5
:102E2000007807280CDA25482049097800EBC11002
:102E300020231A46102100901E48007800F0D0FB95
:102E40001A480078401C07280EDA1C4917480078F9
:102E5000401C01EBC01020231A4610210090154899
:102E60000078303000F0BCFB10480078801C072848
:102E70000EDA12490D480078801C01EBC0102023A7
:102E80001A46102100900B480078603000F0A8FB33
:102E900000F02CFD0548007805490978884202D1E8
:102EA00000200749087008BD17820008190000209B
:102EB0001A0000201B0000201C000020177E0008C4
:102EC0001800002010B53348C06940F080503149E7
:102ED000C8610846C06940F00060C8612E480068BB
:102EE00040F480702C4908602C4800884AF2A551B3
:102EF000884240D02748006A40F001002549086216
:102F000000BF2448006A00F002000028F9D02148E0
:102F1000006A40F480701F4908620846006A40F465
:102F20000040086200BF1E48008800F02000002812
:102F3000F9D01B48008840F0100019490880084665
:102F4000008820F02000088047F6FF7014490831FF
:102F500008801348008820F02000114908800846A6
:102F6000008820F01000088000F050F84AF2A550C8
:102F70000A4908800CE00A48008820F00800084947
:102F8000088000BF0648008800F008000028F9D03B
:102F900010BD00000010024000700040046C0040B2
:102FA0000428004010B58CB0164800881549091F48
:102FB000098840EA01400B900B9800F5E1400B9026
:102FC0000BA8FDF737FA04462C2221466846FDF788
:102FD000BFF9059800F26C7000B20B4908800498A4
:102FE000401C00B24880039800B28880029800B26A
:102FF000C880019800B20881009800B248810CB0E6
:1030000010BD00001C2800400000002010B58CB04E
:103010002348B0F90000A0F26C7006902048B0F987
:103020000200401E05901E48B0F9040004901C48A0
:10303000B0F9060003901A48B0F908000290184849
:10304000B0F90A00019001A8FDF719FAA0F5E144D2
:1030500000BF1448008800F020000028F9D0114873
:10306000008840F010000F4908800846008820F0D2
:10307000200008804FF6FF7000EA1440094914311F
:103080000880091D0C800748008820F020000549B1
:1030900008800846008820F0100008800CB010BDA1
:1030A000000000200428004000200CE0002106E081
:1030B0000022064B03EBC0135A544A1CD1B280299C
:1030C000F6DB421CD0B20828F0DB7047A4000020D9
:1030D0002DE9F04304460D4616461F46284638E0C3
:1030E000224631E0002A2DDB7F2A2BDC002829DB59
:1030F0003F2827DC4FEAE07C00EB5C7C4FEAEC0CDD
:10310000DFF8588008EBCC1C1CF802C003464FEADD
:10311000E07800EB58784FEAE808A0EBC8094FF0D8
:10312000010808FA09F82CEA080C01464FEAE07891
:1031300000EB58784FEAE808DFF8209009EBC81850
:1031400008F802C0511C0AB2A1199142CADC411C04
:1031500008B2E9198142C3DCBDE8F083A400002075
:103160002DE9F04F07460E4691469A46C9F1010BEC
:1031700000254C46321911B27A1910B200F0A0F8AD
:10318000321B11B27A1B10B200F09AF8721911B208
:103190003A1910B200F094F8721B11B23A1B10B237
:1031A00000F08EF8BAF1000F0FD060420FFA80F8ED
:1031B00009E006EB080001B2384600F081F808F19A
:1031C00001000FFA80F8A045F3DB75E0681C05B23A
:1031D000BBF1000F05DA6800401C58440FFA80FB71
:1031E00007E0601E04B2281B4000401C58440FFA40
:1031F00080FB321911B27A1910B200F061F872191D
:1032000011B23A1910B200F05BF8321B11B27A1BFE
:1032100010B200F055F8721B11B23A1B10B200F058
:103220004FF8321B11B27A1910B200F049F8721B34
:1032300011B23A1910B200F043F8321911B27A1BE8
:1032400010B200F03DF8721911B23A1B10B200F042
:1032500037F8BAF1000F2FD060420FFA80F811E072
:1032600006EB080211B27A1910B200F029F806EB49
:10327000080211B27A1B10B200F022F808F1010026
:103280000FFA80F8A045EBDB68420FFA80F811E0F6
:1032900006EB080211B23A1B10B200F011F806EB6F
:1032A000080211B23A1910B200F00AF808F1010050
:1032B0000FFA80F8A845EBDBA54287DBBDE8F08F6D
:1032C00070B50346002B20DB7F2B1EDC00291CDBA6
:1032D0003F291ADCCC1701EB5474E4100B4D05EBBD
:1032E000C414E45C0A46CD1701EB5575ED10A1EB53
:1032F000C5060125B5402C430846CD1701EB557591
:10330000ED10024E06EBC515EC5470BDA400002074
:1033100010B5002306E0002400E0641CB4F57A7FB9
:10332000FBD35B1CB3F57A7FF5D30C48806940F082
:1033300008000A4988610A48006820F0FF0008492F
:1033400008600846006840F066000860012000F050
:10335000E1FA012000F0F0FA10BD00000010024078
:10336000040C014010B50446002311E080211941EE
:10337000214009B1012100E00021084600F0DCFAFB
:10338000012000F0C7FA002000F0C4FA581CC3B2B4
:10339000082BEBDB012000F0BDFA002000F0BAFAA8
:1033A00010BD00B5012000F0C7FA012000F0B2FA0C
:1033B000002000F0C1FA002000F0ACFA00BD00B51A
:1033C000002000F0B9FA012000F0A4FA012000F07A
:1033D000B3FA00BD00B5FFF79BFFAE2000F0BEFAC8
:1033E000D52000F0BBFA802000F0B8FAA82000F049
:1033F000B5FA3F2000F0B2FAD32000F0AFFA002077
:1034000000F0ACFA402000F0A9FAA12000F0A6FAE2
:10341000C82000F0A3FADA2000F0A0FA122000F091
:103420009DFA812000F09AFACF2000F097FAD92077
:1034300000F094FAF12000F091FADB2000F08EFA0F
:10344000302000F08BFAA42000F088FAA62000F0CB
:1034500085FA8D2000F082FA142000F07FFAAF2068
:1034600000F07CFAFFF720FE00F040FA00BD10B536
:103470000246012000E050430B1EA1F10101FAD1E8
:1034800010BD0FB470B5C2B005460E4614464AA82A
:10349000019002A8019A4999FCF72AFF00200190A7
:1034A000234602AA3146284600F03EF942B070BCDD
:1034B0005DF814FB2DE9F04304460D4616461F4601
:1034C000284638E0224631E0002A2DDB7F2A2BDC1B
:1034D000002829DB3F2827DC4FEAE07C00EB5C7CFE
:1034E0004FEAEC0CDFF8588008EBCC1C1CF802C04B
:1034F00003464FEAE07800EB58784FEAE808A0EB83
:10350000C8094FF0010808FA09F88CEA080C0146CE
:103510004FEAE07800EB58784FEAE808DFF82090AF
:1035200009EBC81808F802C0511C0AB2A11991424F
:10353000CADC411C08B2E9198142C3DCBDE8F08352
:10354000A400002030B505460C4645F0B00000F060
:1035500005FA102141EA141000F000FA04F00F00FF
:1035600000F0FCF930BD0000F8B506460F461446E1
:103570001D46082D0CD1A4F12000164901EB0010C6
:103580001023082239460090304600F029F820E048
:10359000062D0ED1A4F1200000EB40000E4901EBF6
:1035A00040000823062239460090304600F018F803
:1035B0000FE00C2D0DD1A4F1200000EBC000074955
:1035C00001EB800018230C2239460090304600F0B1
:1035D00007F8F8BDD6630008C6690008006C00084B
:1035E0002DE9FF4F80460E469146DDF834B00025A8
:1035F00000244A4631464046039BFFF769FD00BF61
:103600005EE0002558E008EB0500002852DB08EBDF
:1036100005007F284EDC3046F11706EB5171C910CA
:103620000FB2F11706EB5171C910A6EBC10A002EBB
:1036300005DA781E07B20AF108000FFA80FA381985
:10364000002817DB3819072814DC3819224901EB48
:10365000C01008EB0501405C04FB09511BF8011088
:1036600001FA0AF1084339191B4A02EBC11108EBB0
:10367000050288543819401C00281BDB3819401CEF
:10368000072817DC3819401C134901EBC01008EB60
:103690000501405C04FB09511BF80110CAF1080246
:1036A000114108433919491C0B4A02EBC11108EBBF
:1036B00005028854681CC5B24D45A4DB601CC4B229
:1036C0000399481EC11700EB5171012202EBE10181
:1036D000A14296DCBDE8FF8FA40000202DE9F04751
:1036E0000646894617461D46DDF82080002417E06F
:1036F000281B411E0A20FFF7BAFEB7FBF0F00A2193
:10370000B0FBF1F201FB120000F1300A04FB08618A
:1037100008B2434652464946FFF726FF601CC4B232
:10372000AC42E5DBBDE8F0872DE9FE4F07468A464F
:10373000144698460025AB460026CBE0605D00F0BD
:10374000800058B94FF0010B2846691C8DB2205CEF
:103750008DF8040000208DF805006BE0605D00F03E
:10376000E000C02814D14FF0020B2846691C8DB22E
:10377000205C8DF80400605D00B9AFE02846691C4C
:103780008DB2205C8DF8050000208DF8060051E018
:10379000605D00F0F000E0281DD14FF0030B2846DB
:1037A000691C8DB2205C8DF80400605D00B995E065
:1037B0002846691C8DB2205C8DF80500605D00B95B
:1037C0008CE02846691C8DB2205C8DF80600002034
:1037D0008DF807002EE0605D00F0F800F02826D19B
:1037E0004FF0040B2846691C8DB2205C8DF8040054
:1037F000605D00B972E02846691C8DB2205C8DF8CE
:103800000500605D00B969E02846691C8DB2205C46
:103810008DF80600605D00B960E02846691C8DB235
:10382000205C8DF8070000208DF8080002E0681C7D
:1038300085B24FE0BBF1010F0BD19DF80420B919FF
:1038400008B243465146FFF78FFE06EB080086B2EA
:103850003FE04FF000090EE009EB890101EB49114F
:10386000204A881801A9FCF7A5FD00B90EE009F16E
:1038700001001FFA80F909EB890101EB4911194A8E
:10388000881819A1FCF796FD0028E5D100BFB8F112
:10389000080F12D109EB890000EB491011490844C7
:1038A000401DB919009008B210231A465146FFF77F
:1038B00097FE06F1100086B20BE0B8F1060F08D1B2
:1038C000B91908B206233F225146FFF74DFEB01D3D
:1038D00086B200BF605D00287FF430AF00BFBDE856
:1038E000FE8F00005C7900080000000010B5002485
:1038F0000BE000212046FFF725FE054901EBC4102F
:10390000802100F03BF8601CC4B2082CF1DB10BD34
:10391000A400002030B10749096841F48071054ACC
:10392000116005E00349096821F48071014A1160C2
:10393000704700000C0C014030B10749096841F4A0
:103940000071054A116005E00349096821F400711E
:10395000014A1160704700000C0C014010B504468C
:10396000FFF71FFD7820FFF7FDFC0020FFF7FAFCB2
:103970002046FFF7F7FCFFF722FD10BD70B50546A6
:103980000E46FFF70EFD7820FFF7ECFC4020FFF716
:10399000E9FC002404E0285DFFF7E4FC601CC4B2ED
:1039A000B442F8DBFFF70BFD70BD000070B50446B4
:1039B0000D46012D08D10B4830F81400401C00B210
:1039C000084921F8140009E0022D07D1054830F814
:1039D0001400401E00B2034921F81400FFF716FB43
:1039E00070BD00000000002038B53FE0FEF756FE35
:1039F000044604B3012C0ED101210220FFF7D6FFAB
:103A00001B48B0F9040020281ADB012018498880DF
:103A1000FFF7FCFA14E0022C0ED102210846FFF752
:103A2000C5FF1348B0F90400002809DC1F20104925
:103A30008880FFF7EBFA03E0032C01D1012038BDA9
:103A400000F0BEFD10231A4630211820FFF732FD8A
:103A5000FFF74CFF0020009002E00098401C00900F
:103A600042F2107100988842F7DB00BFBEE7000009
:103A70000000002038B53FE0FEF710FE044604B316
:103A8000012C0ED101210320FFF790FF1B48B0F954
:103A9000060018281ADB00201849C880FFF7B6FA7C
:103AA00014E0022C0ED102210320FFF77FFF134800
:103AB000B0F90600002809DA17201049C880FFF77E
:103AC000A5FA03E0032C01D1012038BD00F0B0FDC0
:103AD00010231A4600211820FFF7ECFCFFF706FF21
:103AE0000020009002E00098401C009042F210710B
:103AF00000988842F7DB00BFBEE70000000000200E
:103B000038B53FE0FEF7CAFD044604B3012C0ED1E0
:103B100001210420FFF74AFF1B48B0F908003C28A8
:103B20001ADB002018490881FFF770FA14E0022C14
:103B30000ED102210420FFF739FF1348B0F9080025
:103B4000002809DA3B2010490881FFF75FFA03E0FB
:103B5000032C01D1012038BD00F06AFD10231A4664
:103B600019461820FFF7A6FCFFF7C0FE00200090C2
:103B700002E00098401C009042F2107100988842C8
:103B8000F7DB00BFBEE700000000002038B53FE0D3
:103B9000FEF784FD044604B3012C0ED10121084632
:103BA000FFF704FF1B48B0F902000D281ADB0120C3
:103BB00018494880FFF72AFA14E0022C0ED102219E
:103BC0000120FFF7F3FE1348B0F90200002809DCDA
:103BD0000C2010494880FFF719FA03E0032C01D1AB
:103BE000012038BD00F0ECFC10231A4620211820DB
:103BF000FFF760FCFFF77AFE0020009002E00098DB
:103C0000401C009042F2107100988842F7DB00BF20
:103C1000BEE700000000002038B53FE0FEF73EFDA3
:103C2000044604B3012C0ED101210520FFF7BEFE8E
:103C30001B48B0F90A003C281ADB002018494881CB
:103C4000FFF7E4F914E0022C0ED102210520FFF762
:103C5000ADFE1348B0F90A00002809DA3B201049EC
:103C60004881FFF7D3F903E0032C01D1012038BDCF
:103C700000F0DEFC10231A4620211820FFF71AFC62
:103C8000FFF734FE0020009002E00098401C0090F6
:103C900042F2107100988842F7DB00BFBEE70000D7
:103CA0000000002010B500F001F810BD0CB5002098
:103CB000019000903348006840F48030314908603A
:103CC00000BF3048006800F4003000900198401CAC
:103CD0000190009818B90198B0F5A06FF1D129486A
:103CE000006800F4003010B10120009001E00020D5
:103CF00000900098012843D12348006840F010004C
:103D0000214908600846006820F00700086008465E
:103D1000006840F0020008601A484068194948608D
:103D20000846406848600846406840F48060486043
:103D30000846406820F47C1048600846406840F41B
:103D4000E81048600846006840F08070086000BFD6
:103D50000C48006800F000700028F9D0094840685D
:103D600020F00300074948600846406840F0020020
:103D7000486000BF0348406800F00C000828F9D1F3
:103D80000CBD0000001002400020024038B52BE0BE
:103D9000FEF784FC04468CB1012C04D101210020E3
:103DA000FFF704FE0AE0022C04D102210020FFF7F5
:103DB000FDFD03E0032C01D1012038BD00F000FC23
:103DC0001023202219461820FFF774FBFFF78EFD01
:103DD0000020009002E00098401C009042F2107118
:103DE00000988842F7DB00BFD2E7000070B50546B7
:103DF0000C460848007860B9072D0ADA072C08DA63
:103E00000548057005480470012002490870FEF756
:103E100097FF70BD18000020190000201A00002034
:103E200070B5B2E0FEF73AFC0546002D46D00024FE
:103E3000012D0BD155480068401E544908600846C2
:103E40000068002818DC0720086015E0022D0BD15F
:103E50004E480068401C4D49086008460068072825
:103E60000ADD0120086007E0032D05D1FFF71CF9EA
:103E7000FFF73CFD45480478012C01D1002070BDBE
:103E8000022C02D1FFF782FF17E0032C02D1FFF7CB
:103E90007DFE12E0042C02D1FFF7A6FD0DE0052CFB
:103EA00002D1FFF7E7FD08E0062C02D1FFF728FE5C
:103EB00003E0072C01D1FFF7AFFE00BF33480068D5
:103EC000082860D2DFE800F05F04111E2B3845524D
:103ED000FFF7EAF800F074FB10231A4600210846A9
:103EE000FFF7E8FAFFF702FD4DE0FFF7DDF800F01D
:103EF00067FB10231A4619460020FFF7DBFAFFF78D
:103F0000F5FC40E0FFF7D0F800F05AFB10231A460A
:103F100020210020FFF7CEFAFFF7E8FC33E0FFF79F
:103F2000C3F800F04DFB10231A4630210020FFF7A4
:103F3000C1FAFFF7DBFC26E0FFF7B6F800F078FBEC
:103F400010231A4600210846FFF7B4FAFFF7CEFC0B
:103F500019E0FFF7A9F800F06BFB10231A46194689
:103F60000020FFF7A7FAFFF7C1FC0CE0FFF79CF871
:103F700000F05EFB10231A4620210020FFF79AFA7A
:103F8000FFF7B4FC00BF00BF00BF4BE730000020CC
:103F900070B552E0FEF782FB044674B30025012C95
:103FA0000BD126480068401E244908600846006876
:103FB000002818DC0220086015E0022C0BD11F48F5
:103FC0000068401C1D4908600846006802280ADD98
:103FD0000120086007E0032C05D1FFF765F8FFF723
:103FE00085FC164805783DB1012D01D1002070BD3A
:103FF000022D01D1FFF714FF00BF1048006801280F
:1040000002D0022816D10AE000F040FB10231A4625
:1040100000210846FFF74EFAFFF768FC0BE000F0BE
:1040200035FB1023602219460020FFF743FAFFF703
:104030005DFC00E000BF00BF00BFABE72400002034
:1040400008B5174800788E2808DDFCF717F903211A
:1040500090FBF1F201FB1200124908701148007840
:1040600000EB4000104901EB00100D490090097869
:10407000C1F17F00122310222C21FFF7B1FA08486A
:104080000078C0F17F000949087005480078C0F148
:104090008F0088702C2048703E20C87008BD00003A
:1040A0007E0000207F0000201F8400088600002082
:1040B000F8B500250AE0FDF767FF064601F0C0FCF1
:1040C0003D4908800846008804446D1C40F6B8301D
:1040D0008542F0DB94FBF0F0374908800846008801
:1040E000A0F6CC406421484340F2333190FBF1F01C
:1040F0003249086008460068002801DA002008609C
:104100000620032300902D48042102685520FFF764
:10411000E5FA0623252204216720FFF725FA274820
:104120000068642808D1264810231A460021009010
:104130006E20FFF755FA3EE0204800680A2826DB8B
:104140001E480068642822DA1D4810231A46002100
:1041500000906E20FFF744FA184800680A2190FB8F
:10416000F1F0C0F10A00C5B21448006890FBF1F00C
:10417000703006B206232A4605213046FEF7A8FF16
:104180000823062204215520FEF7A2FF13E00C4865
:1041900010231A46002100906E20FFF721FA062313
:1041A0000A2205217020FEF793FF08230C22042128
:1041B0005520FEF78DFFF8BD1000002014000020F0
:1041C0004F8500080EB5FEF76FFFFEF7EBFEFFF719
:1041D0006FFF1848B0F904001649B1F90210154AEA
:1041E000B2F9002014A3CDE900210290062200219B
:1041F0000846FFF746F90F48B0F90A000D49B1F932
:1042000008100C4AB2F906200EA3CDE90021029055
:104210000C2210210846FFF734F908230DA23021A3
:104220000020FFF781FA08230CA230216020FFF75D
:104230007BFA0EBD0000002025642D25642D256429
:1042400000000000253032643A253032643A2530CF
:1042500032640000E88F9CE58D950000E8AEBEE773
:10426000BDAE000008B50648064900900978C1F1C6
:104270007F00082310220921FFF7B2F908BD0000D2
:10428000AF840008800000202DE9F04F87B0FEF7D2
:1042900005FA8246BAF1010F05D13348007810B90A
:1042A0000120314908703148008801F00DFCCDE94A
:1042B00000012F480CC8009801F01AFC00222D4B79
:1042C000CDE9020101F034FA804601F04FF983464E
:1042D00001F002FE064601F0CDF80022264BCDE9A2
:1042E000040101F005FC044601F0AAFB2349087013
:1042F0001D480078D0B92249087800EBD0714910E8
:10430000A0EB410141B91F4812231022282100903F
:104310000020FFF765F915E01A483030122310220B
:10432000282100900020FFF75BF90BE01548603072
:10433000009012480078C0F12801122310220020BA
:10434000FFF74EF9002010490870102088700B48C4
:104350000078C0F12800487008480078C0F13C009F
:10436000C87007B0BDE8F08F8100002084000020F5
:104370009000002000408F4000003C408200002060
:1043800080000020BF8400089800002008B50A487B
:1043900010231A46002100900846FFF721F90C234C
:1043A00006A214210846FFF7BFF90C2304A214212A
:1043B0004820FFF7B9F908BDF77D00084F464600D1
:1043C0004F4E000008B5074810231A460021009000
:1043D0000846FFF705F9082303A210210020FFF784
:1043E000A3F908BDF77D0008E8B0B7E6AD8CE5B0ED
:1043F0008FE68190E9BE990070B5FEF719FA0023A7
:104400001E2220214020FEF7ABFE0D4801684FF030
:10441000844001F08DFD064601F0ECFD04B2094830
:1044200001684FF0854001F0E5FE064601F0E2FD2F
:1044300005B20123042221462846FEF791FE70BDF5
:1044400064000020600000202DE9F0412F48008822
:1044500080281ADA002515E02C48008828442C49C9
:104460000E5C00240AE00120A040304020B104F19D
:1044700038012846FEF724FF601CC4B2082CF2DB8A
:10448000681CC5B2802DE7DB3DE0002515E01F4824
:10449000008828441E490E5C00240AE00120A04048
:1044A000304020B104F138012846FEF709FF601CB6
:1044B000C4B2082CF2DB681CC5B214480088C0F1F5
:1044C000FF00A842E3DC11480088C0F1FF00C6B23B
:1044D00017E00E480088C0F1FF00301A0C490F5C4D
:1044E00000240AE00120A040384020B104F1380146
:1044F0003046FEF7E5FE601CC4B2082CF2DB701CEF
:10450000C6B2802EE5DBBDE8F08100007C00002013
:104510001F8300087CB5164810231A46002100901E
:104520000846FFF75DF81348006801F0D5FC12A3B8
:104530000822CDE9000110210020FEF7A2FF11485A
:10454000006801F0C9FC10A30822CDE90001202178
:104550000020FEF796FF0F48006801F0BDFC0EA397
:104560000822CDE9000130210020FEF78AFF7CBD42
:10457000F77D000860000020526F6C6C3A20252EF9
:10458000326600006400002050697463683A252E8A
:1045900032660000680000205961773A2020252EFD
:1045A0003266000008B5062005230090034800216C
:1045B00002686220FFF792F808BD00007800002032
:1045C00008B5134810231A46002100900846FFF74B
:1045D00007F81048B0F900000FA30822102100903E
:1045E0000020FEF74EFF0B48B0F902000CA3082292
:1045F000202100900020FEF744FF0648B0F9040097
:1046000009A30822302100900020FEF73AFF08BDE0
:10461000F77D000800000020E5B9B43A25346400B5
:10462000E69C883A25326400E697A53A2532640074
:1046300008B50F48B0F906000EA30822002100902B
:104640000846FEF71EFF0A48B0F908000BA308222F
:10465000102100900020FEF714FF0548B0F90A0071
:1046600008A30822202100900020FEF70AFF08BDC1
:1046700000000020E697B63A25326400E588863AC5
:1046800025326400E7A7923A2532640008B507484E
:1046900010231A46002100900846FEF7A1FF0823C8
:1046A00003A210210020FFF73FF808BDF77D0008A6
:1046B000E697A5E69C9FE697B6E997B4E8AEBEE715
:1046C000BDAE00000EB5154810231A46002100901B
:1046D0000846FEF785FF1248007812490978124A09
:1046E000127812A3CDE90021029008221421202083
:1046F000FEF7C7FE082311A22C211846FFF714F875
:10470000082310A22C213020FFF70EF808230FA257
:104710002C215820FFF708F80EBD0000F77D000897
:10472000360000203500002034000020253032649F
:104730003A253032643A253032640000E5BC80E529
:10474000A78B0000E5819CE6ADA20000E6B885E9F4
:1047500099A4000070B500204349087043490870CF
:1047600043490870434908707DE0FDF797FF044610
:104770000025012C0BD140480078401E3E490870AE
:1047800008460078002818DC0420087015E0022C88
:104790000BD139480078401C37490870084600782A
:1047A00005280ADB0120087007E0032C05D1FEF77D
:1047B0007BFCFFF79BF830480578012D03D10020E2
:1047C0002949087070BD2C480078012806D00228BD
:1047D00011D003281FD0042843D12CE0FEF764FC3D
:1047E000FFF770FF10231A4600210846FEF762FE0D
:1047F000FFF77CF835E0FEF757FCFFF763FF012079
:1048000019490870102320222C210820FEF752FE9F
:10481000FFF76CF825E0FEF747FCFFF753FF002099
:1048200011490870102320222C213020FEF742FE6F
:10483000FFF75CF815E0FEF737FCFFF743FF0020B9
:104840000949087009490870094908700949087040
:10485000102320222C215820FEF72CFEFFF746F8CB
:1048600000BF00BF00BF80E73700002036000020F7
:1048700035000020340000203A000020184800884D
:10488000401C1749088008460088B0F57A7F26DB6F
:104890000020088013480078012820D112480078B1
:1048A000401C11490870084600783C2817DB00209E
:1048B00008700E480078401C0C49087008460078C3
:1048C0003C280CDB0020087009480078401C08498F
:1048D000087008460078632801DD002008707047E2
:1048E000380000203700002036000020350000206E
:1048F0003400002010B51348006840F00100114951
:10490000086008464068104908400E49486008465B
:1049100000680E4908400B4908600846006820F40A
:10492000802008600846406820F4FE0048604FF48C
:104930001F008860FFF7B6F94FF000600449086077
:1049400010BD0000001002400000FFF8FFFFF6FE5F
:1049500008ED00E010B54FF08040008A00F0010043
:1049600068B14FF08040008A20F001004FF0804194
:104970000882FDF703FFFFF781FFFDF799FB10BDEC
:104980001E48C06940F001001C49C861002089042C
:1049900008800846008840F4807008800846008837
:1049A00020F0100008806320888540F2CF20088521
:1049B0000846008A20F0010008820846808940F0FD
:1049C000010088810E48006820F4E06040F4A06097
:1049D0000B49086021210B4801700B48006840F02A
:1049E00080504FF0E021C1F800014FF08040008876
:1049F00040F001004FF080410880704700100240F5
:104A00000CED00E01CE400E000E100E0490050EAA9
:104A1000C12018BF04204A0D18BF40F0010040F229
:104A2000FF72B2EB515F08BF40F00200012808BFDF
:104A3000052070472DE9F74F144694B00021C4E9D2
:104A400002111599079121F00045C9498D4206DCF4
:104A50001599C4E9000117B00020BDE8F08FC549E1
:104A6000DFF814A3A9423CDD0799C44E0029C44FC6
:104A7000C44A1599534619DD01F044F9554506D04D
:104A8000C14AC24B01F03EF9C4E900010AE04FF00F
:104A9000D352BE4B01F036F932463B4601F032F9B3
:104AA000C4E9000117B00120BDE8F08F00F090FDCF
:104AB000554506D0B44AB54B00F08AFDC4E9000163
:104AC0000AE04FF0D352B14B00F082FD32463B4634
:104AD00000F07EFDC4E9000117B04FF0FF30BDE8E3
:104AE000F08FAB49A942159978DB21F0004183464C
:104AF0008846A84AA84B00F0FBFF0022A74B00F015
:104B000067FD00F06DFF099000F0C7FF06460F46F5
:104B10009C4A534600F0ECFF43465A4601F0E6F843
:104B200080468A46984A994B3046394600F0E0FF65
:104B30002A0D01250B924246534601F0D7F8032D6A
:104B4000C4E9000139D00B98C1F30A51401A05EBB2
:104B500045111139814230DA9148C346784400EB5F
:104B60000510CDF80CA00C90D0E900233046394652
:104B700000F0BEFF02460B4604910690584603998A
:104B800001F0C0F880468A4602460B465846039913
:104B900001F0B8F8049B069A01F0B4F883460C982B
:104BA00003913946D0E90223304600F0A1FF5A466E
:104BB000039B01F0A7F86D1CBDE707980028A2BF72
:104BC000099817B0BDE8F08F616881F0004161601D
:104BD000099817B04042BDE8F08FFFE7844615986A
:104BE000C1F31301C0F30A50A0F2F5304FEA601888
:104BF00000F01F06C6F120001390002006900790D9
:104C000041F4801E05206D4676B1664A08EB00012E
:104C10007A4452F8213002EB8101B3404A6813997B
:104C200022FA01F1194305E05F4908EB00027944DB
:104C300051F82210A1FB0E27A1FB0C131A449A4233
:104C400034BF0123002303EB070A05EB8003D3E9FC
:104C500001B70F448F4234BF0121002193448B449C
:104C600011B1934502D903E0934501D2012100E03F
:104C70000021C3E901B7514445F82010011EA0F1FD
:104C80000100C1DC0298059F00F10050800F1290D6
:104C90000298DDE90356800000F0FFFE83462846B7
:104CA0000D9100F011FF6FF01D0201F04EFBCDE9F8
:104CB0000E01304600F008FF6FF03D0201F045FBA9
:104CC00080468A46384600F0FFFE6FF05D0201F034
:104CD0003CFB074642465346119100F079FCDDE962
:104CE0000E2300F075FC5A460D9B00F071FC002568
:104CF0000E465A4628460D9B01F004F8DDE90E23C6
:104D000001F000F84246534600F0FCFF3A46119B82
:104D100000F0ECFFDFF898A0244A534600F0E8FECC
:104D200007468846234A244B3146284600F0E0FED9
:104D30003A46434600F04CFC074688464FF0A842EE
:104D400053463146284600F0D3FE3A46434600F02B
:104D50003FFC159A12F0004F04D0129A81F00041E6
:104D600052421292C4E90001129817B0BDE8F08FC8
:104D7000FB21E93F7CD90240FB21F93F7370032EF0
:104D80008A19A33B000040543163621A61B4D03DDC
:104D9000FB21394183C8C96D305FE43F0000E03F2B
:104DA000303B0000AC3A00008E3A0000182D44540D
:104DB000FB21F93D3326A611460B113C2DE9FF4D91
:104DC00021F0004807460C46B8F1795F08DA00F098
:104DD00007FE002801BF0020324904B0BDE8F08D75
:104DE0003A4623461046194600F082FE0546024622
:104DF0002D480E460B460621784400F05DF82A4601
:104E0000334600F075FEDDE9022382468B463846C4
:104E1000214600F06DFE04460F4652465B4628468A
:104E2000314600F065FE22463B4600F06BFF074628
:104E30008A464FF0FF322846314601F086FA1B4A77
:104E400090450ADA3A46534600F05CFF04B000226F
:104E5000BDE8F04D134B00F049BF154A4245A8BFCD
:104E6000A8F500154FF00004B8BF124D22462B469E
:104E700000F048FF0646884622462B460020094996
:104E800000F040FF04460D463A4653463046414640
:104E900000F038FF04B022462B46BDE8F04D00F08C
:104EA00025BF00000000F03F5C3800003333D33FE3
:104EB0000000E93F0000D23F2DE9F0414F1E00EB1A
:104EC000C7010446D1E9000115461E4637F0060227
:104ED0000DD02A46334600F00BFE7F1E04EBC703BD
:104EE000D3E9002300F074FB37F00602F1D1022F62
:104EF00025D0042F13D0062F18BFBDE8F0812A4615
:104F0000334600F0F5FDD4E90A2300F061FB2A46A0
:104F1000334600F0EDFDD4E9082300F059FB2A46A2
:104F2000334600F0E5FDD4E9062300F051FB2A46A4
:104F3000334600F0DDFDD4E9042300F049FB2A46A6
:104F4000334600F0D5FDD4E9022300F041FB2A46A8
:104F5000334600F0CDFDD4E90023BDE8F04100F078
:104F600037BB00002DE9FF4D054621F0004084B01D
:104F70000C46B0F1795F0BDA2846FFF747FD0428AD
:104F800008BF00F071F8284608B02146BDE8F08D52
:104F90002A460B46104600F0ABFD06460F462A4651
:104FA000234600F0A5FD804626488A4632463B4609
:104FB00005217844FFF780FF83461098029160B383
:104FC000214A224B4046514600F092FDCDE90001B6
:104FD0005A4640465146029B00F08AFD824688466A
:104FE000DDE906014FF0FF3201F0AFF952464346CA
:104FF00000F088FE32463B4600F07AFDDDE90623EC
:1050000000F080FEDDE9002300F07CFE08B02A46B7
:105010002346BDE8F04D00F069BE0B465A463046C7
:10502000394600F065FD084A084B00F0D1FA4246C7
:10503000534600F05DFD08B02A462346BDE8F04D1A
:1050400000F0C6BAA2370000495555555555C5BFA1
:10505000012201F07AB900F0BBBA002213461046D3
:10506000114600F065BB0000024A0020110701F064
:105070006CB9000001FDFFFF30380A2801D2012081
:1050800070470020704700002DE9F84F04460D4698
:1050900021F0004000917349814211DC724988423D
:1050A00001DC06D12CB120462946BDE8F84FFFF7B8
:1050B000CFBF6E48002DCCBF6D496E49BDE8F88F5B
:1050C0006D49814211DD6D498142D8BF4FF0FF36F5
:1050D0006DDD20462946FFF799FC042808BFFFF73D
:1050E000C3FF20462946BDE8F88F6549654F25F086
:1050F0000045814233DD6449814219DD0026324694
:105100004FF080432046294600F062FA80468A46E6
:1051100001222046294601F018F900223B4600F002
:10512000F1FD4246534600F003FB04460D463EE0C7
:1051300001260022BA463B462046294600F048FA9E
:1051400080460F46002253462046294600F0DAFDED
:1051500042463B4600F0ECFA04460D4627E04B4938
:1051600081421BDDDFF828A102260022534620469B
:10517000294600F0BDFC00223B4600F029FA80469B
:105180000F46002253462046294600F0BBFD42460A
:105190003B4600F0CDFA04460D4608E003262246C1
:1051A0002B4600203B4900F0C3FA04460D46224638
:1051B0002B461046194600F09BFC8B468246024661
:1051C0000B4600F095FC07460246334888460B46DE
:1051D00006217844FFF770FE52465B4600F088FCDB
:1051E00082462E488B463A46434605217844FFF7CF
:1051F00063FE3A46434600F07BFC02460B46002E17
:10520000504659460CDA00F0E3F922462B4600F0EE
:105210006FFC01B022462B46BDE8F04F00F066BDA2
:1052200000F0D6F922462B4600F062FC1C4A7A4474
:1052300002EBC603D3E9002300F064FD22462B46AF
:1052400000F060FD174A7A4402EBC603D3E900235D
:1052500000F04CFD009A002AB8BF81F00041BDE883
:10526000F88F0000000010440000F07F182D445417
:10527000FB21F93FFB21F9BF0000DC3F0000203E8D
:105280000000F33F0000F03F0000E63F00800340D5
:105290000000F83F0000F0BF52340000103400005E
:1052A000AE330000763300002DE9F04D9446CCF18A
:1052B000000423F000464CEA0404524F46EAD4743A
:1052C0009A46884621F00042BC4206D8454240EA50
:1052D000050442EAD474BC4204D9BDE8F04D6246EC
:1052E000FFF7B9BEAAF14055A5F17F6555EA0C0458
:1052F0000BD0022404EAAA74434DDFF810E144EA1B
:10530000D87452EA000B04D00CE0BDE8F04DFFF772
:10531000BBBE002C14BF012CBDE8F08D022C30D098
:10532000032C32D056EA0C0B0AD0BE4220D1BA422E
:1053300009D126F0804622F080423346114617E01C
:1053400000291ADB25E0DFF8C8B0FB44002C04BFBD
:10535000DBE90001BDE8F08D012C02BFDBE90001B3
:1053600081F00041BDE8F08D022C0AD0032C0CD056
:10537000BA4212D1B8F1000F0BDA23482549BDE833
:10538000F08D28462449BDE8F08D28467146BDE8D9
:10539000F08D1D482149BDE8F08D921B12153C2A65
:1053A000C4BF19481D490EDCBAF1000FBEBF12F18F
:1053B0003C0F0020014606DB624600F0B9F921F0FF
:1053C0000041FFF761FE002C08BFBDE8F08D012C05
:1053D00004BF81F00041BDE8F08D114A114B022C51
:1053E00007D000F08FFC2A46BDE8F04D0A4B00F0D4
:1053F00089BC00F087FC2A46BDE8F04D064B00F062
:1054000075BC00000000F07F182D4454FB2109C03A
:105410003A330000FB21F9BFFB210940FB21F93F92
:10542000075C143326A6A13C00F011F8FFF7A8FA98
:1054300001240BE0FCF7AEFE0446012C02D1FDF77F
:10544000E9FB03E0022C01D1FEF7A2FDF2E710B563
:10545000FDF7C0FFFDF728FEFDF734FDFDF748F925
:10546000FDF7B4F9FDF720FBFCF740FDFCF7A6FDC6
:1054700010BD000000B5254B21F0004287B09A42D4
:1054800003DC0022134600922BE0214B9A4208D104
:1054900040B94FF00100FBF7B1F8FFF7DEFD07B0B0
:1054A00000BD03DBFFF7D4FD07B000BD02AAFFF784
:1054B000C1FA10F003014FF001000DD0012914D002
:1054C00002291AD00DF1080C9CE80F00FFF776FCBA
:1054D00007B081F0004100BD0DF1080C00909CE880
:1054E0000F00FFF73FFD07B000BD0DF1080C9CE871
:1054F0000F00FFF763FC07B000BD0DF1080C009032
:105500009CE80F00FFF72EFDE2E70000FB21E93FDA
:105510000000F07F10B500290AD00878002807D0D5
:1055200005487844FAF746FF002801D0002010BD56
:105530000248784410BD00003A33000032330000C6
:1055400010B500290AD00878002807D0054878440B
:10555000FAF730FF002801D0002010BD024878443F
:1055600010BD00002A3300002233000021F0004269
:10557000A2F16052B2F5801F01F0004328BFD2F1C2
:105580007F6C0BD95FEA001C43EAC20242EB507009
:1055900018BF704728BF20F001007047B2F5801F88
:1055A000BCBF184670474FEA410C1CF5001F02D2E1
:1055B000084600F01ABE70B500F044FB00000089F8
:1055C000FFF7F6BF4FF00040A0F5800070470000E5
:1055D00010B591EA030F48BF83F0004300F19A83AE
:1055E000841A71EB030C05D2121943EB0C03001B58
:1055F00061EB0C01DFF824E14FEA1154A4EB135CDA
:105600001EEA430F18BF9EEA445F73D023EA0E03DD
:10561000DCF1200E21EA045143F4801332D322FA44
:105620000CFE10EB0E0023FA0CFE41EB0E01CCF148
:10563000200E03FA0EFE10EB0E0051F10001B1F541
:10564000801FCCF1200E32D201EB045112FA0EF27F
:10565000BDE8104058BF7047401C38BF5FEA4202A7
:1056600018BF7047002814BF20F0010041F100016D
:105670004FEA410313F5001F38BF7047A1F1C04145
:1056800000F02EBB012A43EB0302ACF1200CDCF14D
:105690001F0E32BF4FF0000E23FA0CF310EB030085
:1056A00041EB0451B4EB115FD0D0A1EB045101F5F3
:1056B000801149085FEA300001EB04510ED350F12C
:1056C000000038BF12FA0EFE08D1BDE81040C9E74D
:1056D000401C38BF5FEA4202CAD1C3E7BDE81040B0
:1056E0004FEA410313F5001F38BF7047A1F1C041D5
:1056F00000F0F6BA9EEA445F08D011EA5E0FBDE8FA
:10570000104004BF01F0004100207047BDE8104088
:1057100070B500F097FA00BF64FBBE3E0000E0FFEA
:1057200002494FF0000000F0DEBD00BF0000F87F2E
:105730002DE9C04130B4DFF8A0C23CEA111418BF13
:105740003CEA131400F0EC8081EA03051CEA111412
:1057500044EAD57418BF1CEA131500F0C780A4EB07
:1057600005044FF0004545EAC12145EAC32341EA5B
:10577000505143EA525304F17F74994204F50034C6
:105780004FEAC0204FEAC22208BF904200F09C803E
:105790004FEA13650FF24016765D4FEA134506FB9C
:1057A00005F7C7F1807706FB07F74FEAD737A7FB66
:1057B00003687642C8F58038A7FB06CE38BFA8F14B
:1057C000010807FB08E64FF0000EA6FB028CE6FB83
:1057D00003CEDCF1000CCEF1004E38BFAEF1010E6D
:1057E000A6FB0C584FF000074FF00005E6FB0E87B4
:1057F000A1FB08C6A0FB07CE16EB0E0645F100057F
:10580000E1FB076515F1E04E7EBFA4F580345FEA49
:1058100046066D4116F1800745F100054FEA17274E
:105820004FEA066647EA0567A6F1DE46B6F1805FF5
:105830004FEA15251FD9384624F0010C05EBC47139
:10584000BCF1FE6F01EB0C1102D8F0BCBDE8008189
:1058500024425CBF01F5801E9EEAC47F02D4F0BCE6
:10586000BDE80081244238D4F0BCA1F1C041BDE8BC
:10587000004100F035BA4FEAD22242EA43524FEAE1
:10588000D323A7FB02864FEAD02040EA415007FB12
:1058900003661EEA0E0F4FEAD12105FB026658BFD0
:1058A000A6EB0056B6EB00564FEA520E4EEAC37E08
:1058B00018EB0E0E56EB530EBDD518EB02085E41E9
:1058C0007F1C55F10005B6E74FF480154FF0000737
:1058D0004FF000064FF00008ADE7F0BC4FF00000BD
:1058E00001F1C04101F00041BDE8008111EA0C1F47
:1058F0000CEA131500D00CE013EA0C1F00F0258011
:105900004FF00000F0BC81EA030101F00041BDE866
:105910000081F0BCBDE8004181EA030100F0E0B97C
:10592000F0BCBDE8004170B500F08CF9097EFC3E8A
:1059300000F007B881EA03014FF0000001F00041D8
:10594000704781EA030100F0CBB9F0BCBDE800412B
:105950004FF0000021497047FFFDFBF9F7F5F4F225
:10596000F0EEEDEBE9E8E6E4E3E1E0DEDDDBDAD8FA
:10597000D7D5D4D3D1D0CFCDCCCBCAC8C7C6C5C458
:10598000C2C1C0BFBEBDBCBBBAB9B8B7B6B5B4B36F
:10599000B2B1B0AFAEADACABAAA9A8A8A7A6A5A45A
:1059A000A3A3A2A1A09F9F9E9D9C9C9B9A9999981E
:1059B0009797969595949393929191908F8F8E8EC1
:1059C0008D8C8C8B8B8A898988888787868585844E
:1059D00084838382828181800000FF070000F87F3A
:1059E0004FEA41034FEA5353A3F58063D3F11E03FB
:1059F000C8BFD3F1210C0CDD4FF0004242EAC122B6
:105A000042EA505232FA03FC8CEAE17CACEBE170E2
:105A10007047102BC4BF0020704703F5787CBCF1A1
:105A2000FF3F04D06FF0004282EA2100704770B55A
:105A300000F008F94992248000207047F2E7000046
:105A40004FEA1153A3F58063D3F11E03A8BFD3F12E
:105A5000200C08DB4FF0004242EAC12252EA5052C9
:105A600032FA03F0704709420BD4102BC4BF002058
:105A7000704703F5787CBCF1FF3F05D04FF0FF3055
:105A800070474FF00000704770B500F0DBF800BFC2
:105A90004992248000207047F0E710F0004248BF90
:105AA0004042B0FA80F310FA03F10AD0C3F11D03AB
:105AB00003F580634FEA415002EB035202EBD12120
:105AC00070474FF000007047B0FA80F310FA03F10E
:105AD0000AD0C3F11D0303F580634FEA41504FEA3A
