:020000040800F2
:10000000980E002001010008A11700084B170008F6
:100010009D170008B50F0008BF230008000000006E
:10002000000000000000000000000000E91B0008C4
:100030000512000800000000911A00083D1D00088C
:100040001B0100081B0100081B0100081B01000820
:100050001B0100081B0100081B0100081B01000810
:100060001B0100081B0100081B0100081B01000800
:100070001B0100081B0100081B0100081B010008F0
:100080001B0100081B0100081B0100081B010008E0
:100090001B0100081B0100081B0100081B010008D0
:1000A0001B0100081B0100081B0100081B010008C0
:1000B0001B010008F51D00081B0100081B010008BA
:1000C0001B0100081B0100081B0100081B010008A0
:1000D0001B010008C11F0008112000089D20000816
:1000E0001B0100081B0100081B010008DFF80CD0F1
:1000F00000F05CFC0048004789370008980E00209B
:100100000648804706480047FEE7FEE7FEE7FEE7B1
:10011000FEE7FEE7FEE7FEE7FEE7FEE7951D0008C7
:10012000ED000008D2B201E000F8012B491EFBD21D
:1001300070470022F6E710B513460A4604461946F2
:10014000FFF7F0FF204610BD30B505462A460B46A6
:1001500012F8010B13F8014B08B1A042F8D01CB102
:10016000002802D06D1CF1E7284630BD10B50446CA
:1001700004E00B7800F8013B03B1491C521EF8D291
:10018000204610BDCAB2401E10F8011F8A4202D09C
:100190000029F9D100207047421C10F8011B0029EA
:1001A000FBD1801A7047000070B50F4D00B9286868
:1001B000002412E00A4602E09E4203D0521C13784B
:1001C000002BF9D1DAB2224305D02BB124B10021A2
:1001D00000F8011B04E00446401C0678002EE9D11B
:1001E0002860204670BD00005400002070B506460F
:1001F00002F084FD046805460A220021304600F022
:10020000ADF92C6070BDF0B480EA0102D40F420059
:10021000B2EB410F02D20246084611464A0042D0D4
:10022000C30DDDB2C1F3C752AD1A202D35DAC1F3CB
:10023000160141F4000204B15242C5F1200602FA4F
:1002400006F12A411044B3EBD05F23D0C4B1012D95
:10025000A0EBC35009DCF0BC4FF0004202EAC352ED
:10026000DBB200F5000000F0BAB9400000F1807088
:1002700000EBC350A0F1807040EAD170490009E062
:10028000490841EAC071A0EBC35000F500004008E6
:1002900000EBC350F0BC00F099B96142012202EBBF
:1002A0004101001BF6E7F0BC704781F00041AAE76E
:1002B00080F00040A7E780EA010210B502F0004399
:1002C000400022D04A001FD0010E01EB1261C0F3A2
:1002D0005600C2F3560240F4000042F40002A0FBB4
:1002E000022000047F39140400D0401C50EA124060
:1002F00001D44000491EC2B20C0604EBD010401CD1
:100300004008802A02D003E0002010BD20F0010048
:10031000002900DA0020184310BD30B480EA010241
:1003200002F0004530F0004221F0004013D090B1BF
:10033000C30DD40DC2F31601C0F31600E41A41F444
:10034000000140F400027D34914201D3641C00E0BE
:100350004900002C02DA30BC002070474FF4000046
:100360000023914201D3891A034340084FEA410117
:10037000F7D151B1914202D14FF0004105E002D2D4
:100380004FF0010101E06FF0010103EBC45028447C
:1003900030BC00F01BB9C10F80EAE0700844CA0706
:1003A0009623002100F01BB900F0004230F000401D
:1003B0000AD0C10D01F56071C0F3160042EA015187
:1003C000C20840071143704700200146704701F002
:1003D000004330B421F0004150EA010206D00A0D7A
:1003E000A2F56072C1F31301002A02DC30BC0020C8
:1003F0007047440F44EAC104C100E01830BC00EB70
:10040000C25000F0E3B80000002801DBC0F100405A
:10041000002901DBC1F1004181427047002801DB66
:10042000C0F10040002901DBC1F100418842704762
:1004300030B50B46014600202022012409E021FAB4
:1004400002F59D4205D303FA02F5491B04FA02F5B1
:100450002844151EA2F10102F1DC30BD2DE9F05F48
:100460000546002092469B46884606468146402423
:100470001BE0284641464746224600F0B8FA53465C
:100480005A46C01A914110D311461846224600F030
:100490009FFA2D1A67EB01084F46224601200021E2
:1004A00000F096FA17EB00094E41201EA4F101045A
:1004B000DFDC484631462A464346BDE8F09F00004F
:1004C0000FB4002300B589B00CA900910B996FF00F
:1004D0000042CB601E4B06931E4B07930423CDE9CD
:1004E00001321D4A089202466B46002000F044FB90
:1004F00009B05DF814FB70B586B006464FF0FF30CA
:100500000091CDE90101002015460C4604903246C9
:10051000694604A8FFF7D4FF02460498211825B1C4
:1005200008B1084600E020462860049800280DD055
:10053000002A02DD0098884208D0081B0094CDE90B
:1005400001043246694604A8FFF7BAFF06B070BD41
:10055000B10D0008CF0D00083D0A00082DE9F04755
:1005600091460F4680460446002614F8015B2DB1E3
:1005700000F060FA0068405DC007F6D12B2D02D074
:100580002D2D18D0641E4A463946204600F030FC16
:1005900027B13968A14201D1C7F8008071054FF039
:1005A00002040BD54042002803DD02F0A7FB0460E3
:1005B000A007BDE8F08746F48066E4E70028F8DA93
:1005C00002F09CFB04606FF00040F2E70029A8BF36
:1005D0007047401C490008BF20F00100704710B46C
:1005E000B0FA80FC00FA0CF050EA010404BF10BC21
:1005F000704749B1CCF1200421FA04F411FA0CF14E
:1006000018BF012121430843A3EB0C01CB1D4FEA86
:1006100000614FEA102042BF002010BC704700EB81
:10062000C35010440029A4BF10BC7047401C4900AF
:1006300008BF20F0010010BC70472DE9FE4F804636
:1006400081EA0300C00F0C46009021F0004123F026
:100650000045B8EB0200A94105D24046214690462C
:100660001C460B46024623F00040104347D0270D9E
:10067000C7F30A00C3F30A510290401A01904028C0
:100680006BDAC3F3130040F4801B0098924620B14C
:100690000023D2EB030A63EB0B0B01985946C0F120
:1006A0004002504600F094F906460D465046594621
:1006B000019A00F0ACF910EB08006141002487EAD0
:1006C000115284EAE7731A4340D0009A62B3019A48
:1006D000012A4FEA075215DC001B61EB02014FF0C3
:1006E000004202EA0752CDE90042001C41F58011A8
:1006F00032462B4600F0DAFB03B0BDE8F08F4046EF
:100700002146F9E7001B61EB0201001C41F5801353
:1007100000185B412018A2F5001747EB030140EADF
:10072000D570B6196D4111E06D084FEA360645EAFD
:10073000C0754FEA0752001B61EB0201001C41F536
:10074000801149084FEA30000019514132462B46CA
:1007500003B0BDE8F04F00F09ABB009801224000C2
:100760000023D0EB020263EBE073009821464FEACE
:10077000E074B8EB000061EB0401E9E783F00043AB
:100780005BE781F0004158E72DE9FE4F81EA030461
:1007900004F0004421F0004100944FF0000B23F0DE
:1007A000004350EA01045ED052EA03045BD0C3F375
:1007B0000A54C1F30A552C44A4F2F3340194A0FB6B
:1007C0000254C1F3130141F48011C3F3130343F442
:1007D000801301FB024400FB034E840A970A44EA9B
:1007E000815447EA8357A4FB076802958D0A05FBED
:1007F00007854FEA932C04FB0C542705029D4FEA12
:10080000065847EA1637B5EB08056EEB070C870E5E
:10081000920E47EA811742EA8312A7FB0201B6EB68
:100820000B0164EB00042B0D43EA0C335E1844EB20
:100830001C50DA465146E7FB0201C5F313044FEAA8
:100840000B3343EA14534FEA0432019C43EA060394
:10085000A4F10C040294009CCDE900B400F026FB46
:1008600003B0BDE8F08F00200146F9E72DE9F04D17
:1008700081EA030404F0004B21F0004514464FF0D8
:10088000000A23F0004150EA050220D054EA010298
:100890001DD0C5F30A570246C5F31303C1F3130075
:1008A000C1F30A5640F4801543F48013A7EB060801
:1008B000101BD64608F2FD3873EB050002D308F191
:1008C000010801E092185B41B8F1000F03DA002043
:1008D0000146BDE8F08D00204FF4801106468446A5
:1008E0000EE0171B73EB050705D3121B63EB050323
:1008F00006434CEA010C49084FEA300092185B416C
:1009000050EA0107EDD152EA030012D082EA040056
:1009100083EA0501084305D0101BAB4106D2012232
:10092000002306E000224FF0004302E06FF00102D6
:1009300053101AEB06004CEB085110EB0A0041EB88
:100940000B01BDE8F04D00F0A2BAC1F30A52C1F3A9
:10095000130140F2FF3341F480119A4202DA002081
:100960000146704740F233439A42A2F2334202DC1E
:10097000524200F03CB800F02BB8000030B5041E25
:1009800071F1000404DB4FF00044404264EB0101CC
:10099000141E73F1000405DB1C464FF00043524265
:1009A00063EB0403994208BF904230BD064C074DEB
:1009B00006E0E06840F0010394E80700984710342F
:1009C000AC42F6D3FFF796FBE46E0008046F000814
:1009D000202A04DB203A00FA02F1002070479140FF
:1009E000C2F1200320FA03F3194390407047202AF4
:1009F00004DB203A21FA02F00021704721FA02F3C9
:100A0000D040C2F120029140084319467047202A85
:100A100006DBCB17203A41FA02F043EAE07306E026
:100A200041FA02F3D040C2F1200291400843194636
:100A30007047000000487047186C000810B5044665
:100A4000FFF7F8FF0068005D00F0010010BD000036
:100A50002DE9FF4F087883B09946FF2805D0491C3F
:100A60002D2804D00024002008E000200BE0012401
:100A7000F9E700EB800003EB4000491C0B78FF2BEB
:100A8000F7D104B1404200230293147819461D4661
:100A90002D2C01D02B2C04D1521C2D2C13D0002432
:100AA0000294AA461478FF2C0FD00A25A3FB0578E0
:100AB00001FB05814FF0000C03FB0C11521CE319E4
:100AC0004AEB0101EEE70124EAE7814453EA010021
:100AD00002D019F5C87F06DA03980021C0E9001199
:100AE00007B0BDE8F08F0025AE4E2F46DFF8B88284
:100AF000184600F037FACDE90001B9F1000002DA3A
:100B0000C9F1000400E004460023A74A1AEB030BD6
:100B100042EB045A12E0E00707D02A463346384633
:100B20004146FFF731FE074688462A4633461046BF
:100B30001946FFF729FE05460E466410002CEAD13F
:100B4000DDE90001B9F1000F5A46534606DAFFF716
:100B50008DFE3A464346FFF789FE05E0FFF714FE97
:100B60003A464346FFF710FE029A0AB181F000416F
:100B7000039AC2E90001B3E72DE9FF4F1F468DB08C
:100B8000D7E901464FF0FF382E2045464FF00009C7
:100B90000B90B9696D1C0E988847396A8246884760
:100BA0000028F6D1BAF1FF3F0AD024F4D064002E19
:100BB00011DDBAF12B0F08D0BAF12D0F0BD102E0E5
:100BC000404611B08DE744F48064B9696D1C0E98FD
:100BD00088478246761E6946600501D52D2000E0D3
:100BE0002B208DF8000001F1010B0DF1200809E028
:100BF000B9696D1C0E98884782460F9844F40074BA
:100C0000761E0560002E02DDBAF1300FF0D00B9990
:100C10008A453ED144F0800406E00F99681CA9F192
:100C2000010944F400740860B9696D1C761E0E98C1
:100C3000884782463028F0D02BE00B998A4505D1B1
:100C4000200603D444F08004761E18E0504602F0DB
:100C500037F908B30DF11301761E44F400748B4587
:100C600008D2AAF130000BF8010B200607D5A9F134
:100C7000010003E0200602D409F101008146A0052D
:100C800002D50F99681C0860B9696D1C0E988847D9
:100C90008246002ED1DC53E0002E51DDBAF1650F03
:100CA00002D0BAF1450F4BD1A00549D5B9696D1CE9
:100CB00024F44074761E0E9888478246002E0CDD80
:100CC0002B2804D0BAF12D0F07D144F48074B969F0
:100CD0006D1C0E9888478246761EE00501D52D21B1
:100CE00000E02B2108F8011BCDF82C8021E00DF14C
:100CF0002901761E44F4007488450CD2AAF1300014
:100D000010F0FF0088F8000002D10B99884509D93E
:100D100008F1010806E0E00501D5244801E042F2AF
:100D20000F708146B9696D1C0E98884782460F98EE
:100D30000560002E04DD504602F0C2F80028D6D12E
:100D4000F9690E988847FF208BF8000088F80000AA
:100D50000020069007904B466A4608A906A8FFF7B0
:100D600077FEA00502D46FF001002AE714F0240FEB
:100D70000AD0E00714D1DDE906123868031D3B6094
:100D80000068C0E900120BE0DDE90601FFF71FFB78
:100D90000146E00704D13868021D3A60006801602E
:100DA00028460EE7000014400000F03FF1D8FFFF96
:100DB000426842B1016811F8013B23B1521EC0E9FB
:100DC0000012184670470121C160881E70474268B2
:100DD0005AB1C368016843B983688B4205D0491E84
:100DE000521CC0E90012002070474FF0FF307047DE
:100DF0002DE9F05F82460078002715468B460AF100
:100E00000104B946302801D09DB113E014F8010B5C
:100E10000127782803D0582801D045B10AE00DB148
:100E2000102D07D10027102514F8010B02E008252A
:100E300000E00A250026B0460EE005FB080005FB91
:100E400006F1012701EB10461FFA80F8B6F5803F46
:100E500000D3B94614F8010B294600F075F80028B4
:100E6000EBDABBF1000F05D00FB1641E00E0544671
:100E7000CBF80040B9F1000F06D001F03FFF02218E
:100E80000160C81EBDE8F09F48EA0640FAE710B5C9
:100E9000141E73F1000408DA401C41F1000192189D
:100EA0005B411A4301D120F0010010BD2DE9F04D46
:100EB00092469B4611B1B1FA81F202E0B0FA80F29B
:100EC00020329046FFF784FD04460F4640EA0A00B0
:100ED00041EA0B0153465A46084313D0114653EAE0
:100EE000010019D0C8F140025046FFF780FD0546C9
:100EF0000E46504659464246FFF76AFD084305D064
:100F0000012004E020463946BDE8F08D002005436D
:100F100046EAE0762C4337430A986305E40AA0EBDF
:100F200008000022FD0A44EA47540A3002D5002096
:100F30000146E9E7010510196941DDE90845001995
:100F40006941BDE8F04DA2E73A2800D2303820F0E0
:100F50002002412A01D3A2F13700884201D34FF089
:100F6000FF3070470EB540F2334202920022CDE9C5
:100F700000221346FFF79AFF03B000BD08B5012118
:100F8000042000F0A7FD4FF48050ADF800001020C1
:100F90008DF8030003208DF802006946044800F034
:100FA000F3FA4FF4805002491031086008BD000088
:100FB0000008014000BFFEE708B50121084600F027
:100FC00089FD0121124800F06BFB0121082000F08F
:100FD00081FD2020ADF8000010208DF803000320D3
:100FE0008DF8020069460B4800F0CEFA1020ADF8EB
:100FF00000008DF8030003208DF8020069460548C3
:1010000000F0C2FA0A2002F081FB00F073FE08BD76
:1010100000023000000C014010B500F0E3F810BDF4
:1010200070B505460E463146284601F019F808A06D
:1010300001F028FE002405E0295D09A001F022FE50
:10104000601CC4B2B442F7DB07A001F01BFE70BD08
:101050004C6F72612073656E64202D3E5B00000052
:1010600025237820000000005D0D0A0008B501214D
:10107000042000F02FFDB020ADF8000010208DF806
:10108000030003208DF802006946544800F07CFA02
:10109000B021524800F057FB0121082000F01AFD52
:1010A0000120ADF8000010208DF8030003208DF81A
:1010B000020069464A4800F067FA0121484800F0FA
:1010C00042FB1021454800F03EFB642002F01EFB6D
:1010D0001021424800F035FBC82002F017FB102118
:1010E0003E4800F030FB0021AE2000F09FFC0021C4
:1010F000084600F09BFC0021102000F097FC002126
:10110000402000F093FC0021812000F08FFC0021A2
:10111000CF2000F08BFC0021A12000F087FC0021F3
:10112000C82000F083FC0021A62000F07FFC0021F5
:10113000A82000F07BFC00213F2000F077FC00217C
:10114000D32000F073FC0021084600F06FFC002162
:10115000D52000F06BFC0021802000F067FC00210E
:10116000D92000F063FC0021F12000F05FFC002199
:10117000DA2000F05BFC0021122000F057FC002177
:10118000DB2000F053FC0021402000F04FFC002148
:10119000202000F04BFC0021022000F047FC002141
:1011A0008D2000F043FC0021142000F03FFC0021C2
:1011B000A42000F03BFC0021A62000F037FC002119
:1011C000AF2000F033FC0021AF2000F02FFC00F036
:1011D0002BFB0021084600F047FB08BD000801403A
:1011E000000C014010B500200549C1F8040281F847
:1011F00008024FF400710248FEF79BFF10BD00008B
:10120000800200207047000010B500244FF40071E8
:10121000124800F098FA12A001F034FD4FF4FA6081
:1012200002F074FA15E0214611A001F02BFD4FF4F5
:10123000FA73002214A115A000F038F828B1214655
:1012400013A001F01FFD012010BD00F02DF9601C5E
:10125000C4B20A2CE7DB0020F6E70000000C0140D6
:101260000D0A4154B2E2CAD42E2E2E2E2E0D0A00A3
:101270000D0A4154B2E2CAD4B4CECAFD2025642E70
:101280002E2E2E2E2E0D0A004F4B00004154000032
:101290000D0A4154B2E2CAD4C6F4B6AFB3C9B9A676
:1012A0002025642E2E2E2E2E2E0D0A002DE9F04123
:1012B00007460C4615461E46002020490880384641
:1012C00001F080F81EA001F07DF81CB915B90120CD
:1012D000BDE8F081304602F019FA00201949174A9A
:1012E00012888854B4B1ADB121461648FEF72CFFE0
:1012F00008B1012000E0002040B929461148FEF75E
:1013000023FF08B1012000E0002008B10120DFE741
:101310000020DDE744B121460A48FEF715FF08B179
:101320000120D5E70020D3E729460648FEF70CFF49
:1013300008B10120CCE70020CAE7000052000020DD
:101340000D0A00009806002000B58BB006A101A888
:1013500001F0C0FC4FF4FA73002208A101A8FFF7C6
:10136000A5FF0BB000BD000041542B435744484338
:10137000505F4355523D312C310000004F4B00006F
:1013800008B50121082000F0A5FB10208DF803000E
:1013900003208DF802000121082000F09BFB4FF490
:1013A0000070ADF800006946014800F0EDF808BD96
:1013B000000C014010B5FFF7E3FF00F087F84FF491
:1013C0000071064800F0BFF94FF48071034800F047
:1013D000BAF94FF47A7002F099F910BD000C01408F
:1013E00030B59FB004460D462B46224606A101A803
:1013F00001F070FC43F6982308A20CA101A8FFF7A6
:1014000055FF1FB030BD000041542B43574A415097
:101410003D222573222C222573220000574946497C
:1014200020434F4E4E454354454400004F4B00006F
:1014300010B5044624B1012C0AD0022C18D10FE0BB
:1014400040F6C4130BA20EA10EA0FFF72FFF10BD94
:1014500040F6C41307A20AA10DA0FFF727FFF6E785
:1014600040F6C41303A206A10CA0FFF71FFFEEE78E
:101470000020ECE76E6F206368616E676500000016
:101480004F4B000041542B43574D4F44453D3100D5
:1014900041542B43574D4F44453D320041542B435B
:1014A000574D4F44453D330010B54FF40071064889
:1014B00000F047F94FF4FA7002F028F94FF4007188
:1014C000014800F040F910BD000C014000B585B0A6
:1014D0000121880400F0DEFA0121082000F0FAFA68
:1014E0004FF48060ADF8100018208DF81300032031
:1014F0008DF8120004A91A4800F046F84FF4006075
:10150000ADF8100004208DF8130004A9144800F071
:101510003BF84FF4E13000900020ADF80400ADF846
:101520000600ADF80800ADF80C000C20ADF80A007C
:1015300069460C4800F0CEFE012240F225510948D0
:1015400000F0A3FE012240F22441064800F09DFE77
:1015500000F00AF80121034800F005FE05B000BDC7
:10156000000C01400048004008B527208DF800001D
:1015700000208DF801008DF8020001208DF8030095
:10158000684600F00FF908BD2DE9F041024600253C
:101590000026002000230024002791F803C00CF04F
:1015A0000F0591F803C00CF0100CBCF1000F03D034
:1015B00091F802C04CEA050591F800C0BCF1000F9B
:1015C00031D0146800202BE04FF0010C0CFA00F32E
:1015D000B1F800C00CEA03069E4220D183004FF010
:1015E0000F0C0CFA03F7BC4305FA03FC4CEA0404A5
:1015F00091F803C0BCF1280F06D14FF0010C0CFA92
:1016000000FCC2F814C00AE091F803C0BCF1480F16
:1016100005D14FF0010C0CFA00FCC2F810C0401CC0
:101620000828D1D31460B1F800C0BCF1FF0F34DD3D
:10163000546800202EE000F1080C4FF0010808FA71
:101640000CF3B1F800C00CEA03069E4221D18300DE
:101650004FF00F0C0CFA03F7BC4305FA03FC4CEAFD
:10166000040491F803C0BCF1280F05D100F1080C67
:1016700008FA0CF8C2F8148091F803C0BCF1480FC6
:1016800007D100F1080C4FF0010808FA0CF8C2F875
:101690001080401C0828CED35460BDE8F0810000C3
:1016A000F0B50A46002300240021002500F0004682
:1016B000B6F1004F02D11D4EF16901E01B4E716879
:1016C000C0F3034583B200F44016B6F5401F08D1BD
:1016D00021F07061154E766826F07066134F7E60BB
:1016E00012E000F48016B6F5801F06D1032606FA34
:1016F00005F4A14341F0706106E0460D360103FA9E
:1017000006F6B14341F0706122B1460D360103FA8D
:1017100006F6314300F00046B6F1004F02D1034E09
:10172000F16101E0014E7160F0BD00000000014078
:101730000246002093680B400BB1012000E000201E
:101740007047416170470161704700BFFEE70000CC
:1017500008B50121084600F0BDF901210D48FFF749
:101760009FFF0121042000F0B5F94FF40040ADF8CF
:10177000000010208DF8030003208DF80200694658
:101780000548FFF701FF4FF400410348FFF7DBFF77
:1017900008BD0000000230000008014000BFFEE765
:1017A0007047000070B5002100230F22C47804B3F5
:1017B000154C246804F4E064C4F5E064210AC1F126
:1017C0000403CA40447804FA03F1847814402143A6
:1017D00009010E4C0678A155047804F01F05012478
:1017E000AC4005786D11AD0005F1E025C5F800416C
:1017F00009E0047804F01F050124AC40044D06788C
:10180000761145F8264070BD0CED00E000E400E0E4
:1018100080E100E002490143024A11607047000084
:101820000000FA050CED00E070B5002419E004F1A9
:10183000B001C8B2002100F0F9F80021084600F01C
:10184000F5F80021102000F0F1F8002505E0012155
:10185000002000F0EBF8681CC5B2802DF7DB601C9F
:10186000C4B2082CE3DB70BD70B504460D4605F12B
:10187000B001C8B2002100F0D9F8102141EA1410DB
:10188000002100F0D3F804F00F0141F00100002125
:1018900000F0CCF870BD00002DE9F04781460F46FE
:1018A00016464FF0D50A002449E004EB04102649FF
:1018B00011F81000317888423ED104EB041022491F
:1018C00001EB400040787178884235D14FF0000834
:1018D00039464846FFF7C8FF00250FE004EB041126
:1018E000194A02EB4101891C485D012100F09EF874
:1018F00008F1010000F0FF08681CC5B2102DEDDBF7
:10190000781CC1B24846FFF7AFFF002511E004EB99
:1019100004110D4A02EB4101891C05F11002885C9B
:10192000012100F083F808F1010000F0FF08681CB5
:10193000C5B2102DEBDB00BF00BF601C84B2544564
:10194000B3DBBDE8F08700004C4F00082DE9F04103
:1019500007460E46904600250024A8F12000C5B297
:101960007F2F02DD0027B01CC6B231463846FFF794
:101970007BFF002408E004EB05110F4A505C0121B5
:1019800000F054F8601CC4B2082CF4DB701CC1B227
:101990003846FFF769FF002409E004EB0511083120
:1019A000054A505C012100F041F8601CC4B2082CCB
:1019B000F3DBBDE8F08100005C4900082DE9F0414F
:1019C00005460F4616460024A04629E0B8F1000F50
:1019D00015D1305D802802DD4FF0010820E0325D36
:1019E00039462846FFF7B2FF05F10800C5B2782D49
:1019F00002DD0025B81CC7B2601CC4B210E04FF075
:101A00000008321939462846FFF746FF05F1100055
:101A1000C5B2722D02DD0025B81CC7B2A01CC4B22D
:101A2000305D0028D2D1BDE8F081000070B50446D9
:101A30000E4626B101211448FFF785FE03E001217F
:101A40001148FFF77EFE002517E020210F48FFF721
:101A500078FE04F0800020B180210C48FFF773FE6F
:101A600003E080210948FFF76CFE20210748FFF7BB
:101A70006AFE6006040E681CC5B2082DE5DB012174
:101A80000148FFF760FE70BD000C014000080140F6
:101A90007047000029B1064AD2690243044BDA615B
:101AA00004E0034AD2698243014BDA6170470000C7
:101AB0000010024029B1064A12690243044B1A6120
:101AC00004E0034A12698243014B1A617047000027
:101AD0000010024029B1064A92690243044B9A6100
:101AE00004E0034A92698243014B9A617047000007
:101AF0000010024029B1064AD2680243044BDA6062
:101B000004E0034AD2688243014BDA607047000068
:101B10000010024030B500210022002400232D4D8A
:101B20006D6805F00C0121B1042905D0082923D1E5
:101B300005E0294D056022E0274D05601FE0254D99
:101B40006D6805F47012234D6D6805F4803402252C
:101B500005EB92421CB9214D554305600BE01D4D2C
:101B60006D6805F400351DB11C4D5543056002E05C
:101B7000194D5543056002E0174D056000BF00BFD9
:101B8000144D6D6805F0F0010909154D6B5C056891
:101B9000DD4045600F4D6D6805F4E061090A104DA8
:101BA0006B5C4568DD4085600A4D6D6805F46051E9
:101BB000C90A0B4D6B5C4568DD40C560054D6D681D
:101BC00005F44041890B074D6B5CC568B5FBF3F527
:101BD000056130BD0010024000127A0000093D008E
:101BE0001400002024000020704710B500F002F817
:101BF00010BD00000CB50020019000903348006833
:101C000040F480303149086000BF3048006800F47B
:101C1000003000900198401C0190009818B901987C
:101C2000B0F5A06FF1D12948006800F4003010B180
:101C30000120009001E0002000900098012843D18D
:101C40002348006840F010002149086008460068F9
:101C500020F0030008600846006840F002000860B9
:101C60001A48406819494860084640684860084674
:101C7000406840F4806048600846406820F47C106A
:101C800048600846406840F4E8104860084600682C
:101C900040F08070086000BF0C48006800F00070E1
:101CA0000028F9D00948406820F00300074948603F
:101CB0000846406840F00200486000BF03484068A2
:101CC00000F00C000828F9D10CBD00000010024003
:101CD0000020024010B50A2001F018FD2021044820
:101CE000FFF72FFD10210248FFF72DFD10BD00006A
:101CF000000C014010B50A2001F008FD2021044825
:101D0000FFF71FFD10210248FFF71BFD10BD00006B
:101D1000000C0140042808D14FF0E021096941F08E
:101D200004014FF0E022116107E04FF0E021096962
:101D300021F004014FF0E02211617047704700006C
:101D400070B505460420FFF7E5FF0F4800680F490E
:101D5000B0FBF1F00E4908700B4800680B49B0FB6E
:101D6000F1F44FF47A7044434FF0E020006940F002
:101D700002004FF0E021086108464461006940F02C
:101D80000100086170BD00000000002040420F000B
:101D90004000002010B51348006840F001001149D0
:101DA000086008464068104908400E4948600846E7
:101DB00000680E4908400B4908600846006820F496
:101DC000802008600846406820F4FE0048604FF418
:101DD0001F008860FFF709FF4FF0006004490860AA
:101DE00010BD0000001002400000FFF8FFFFF6FEEB
:101DF00008ED00E010B50121044800F055F818B1D5
:101E00000121024800F041F810BD0000000400402C
:101E10007FB504460D4601210220FFF73BFE18481E
:101E200000F05CF8ADF80850ADF804400020ADF8C3
:101E30000A008DF80C00ADF8060001A9104800F06A
:101E400053F801210E4800F01DF8012211460C48FC
:101E500000F03BF84FF4A060FFF7DCFC1D208DF88C
:101E6000000001208DF801008DF802008DF80300BC
:101E70006846FFF797FC0121014800F009F87FBD93
:101E800000040040CA4302827047CA43028270477E
:101E900021B1028842F00102028004E002884FF67C
:101EA000FE731A400280704730B5024600200023BE
:101EB0000024158A05EA0103958905EA010413B196
:101EC0000CB1012000E0002030BD1AB183890B4322
:101ED000838102E083898B438381704701894FF6B8
:101EE000F872114001817047002202881D4B984210
:101EF0000ED01D4B98420BD0B0F1804F08D01B4B39
:101F0000984205D01A4B984202D01A4B984204D1FD
:101F10004FF68F731A404B881A43174B984207D0DD
:101F2000164B984204D04FF6FF431A40CB881A4311
:101F300002808B8883850B8803850A4B98420BD0DF
:101F4000094B984208D00E4B984205D00D4B984251
:101F500002D00D4B984201D10B7A03860123838274
:101F600070470000002C0140003401400004004094
:101F700000080040000C0040001000400014004029
:101F80000040014000440140004801400B49D1F8A5
:101F90000412B1F5007F04D30021084AC2F80412EC
:101FA0000AE00649D1F80422D1F80412491C034B77
:101FB000C3F80412194688547047000074000020CA
:101FC00070B500BF40F225510F4800F034F930B130
:101FD0000D4800F0EBF9C4B22046FFF7D7FF40F2FE
:101FE0002441094800F027F960B1074800F0DEF904
:101FF000C4B205480588001D05880120034981F801
:10200000080200BF70BD00000038014074000020CD
:1020100070B500BF40F225510F4800F00CF930B107
:102020000D4800F0C3F9C4B2204602F069FB40F24B
:102030002441094800F0FFF860B1074800F0B6F904
:10204000C4B205480588001D05880120034981F8B0
:10205000080200BF70BD0000004400408002002064
:1020600070B505460E46002404E0285D00F006F831
:10207000601C84B2B442F8DB70BD000010B50446A9
:1020800000BF8021044800F0C9F80028F9D021469B
:10209000014800F090F910BD0044004070B500BF49
:1020A00040F22551194800F0C6F898B1174800F0E1
:1020B0007DF9C4B2204600F033F81548008840F29C
:1020C000FF31884206DA12490888411C104A118003
:1020D00010490C5440F224410C4800F0ACF898B17F
:1020E0000A4800F063F9C4B208480588001D058855
:1020F0000120094981F808020849088000200549A3
:10210000034A1288885400BF70BD00000048004098
:1021100052000020980600208C040020500000206F
:102120000B49D1F80412B1F5007F04D30021084A0D
:10213000C2F804120AE00649D1F80422D1F80412C8
:10214000491C034BC3F80412194688547047000019
:102150008C04002001F40072B2F5007F00D100BFB2
:10216000CA430280704721B1828942F400528281C1
:1021700004E082894DF6FF731A40828170470000A7
:1021800010B504462048844209D101218803FFF795
:10219000B1FC00214FF48040FFF7ACFC32E01B485B
:1021A000844209D101214804FFF784FC00214FF447
:1021B0000030FFF77FFC25E01548844209D101215A
:1021C0008804FFF777FC00214FF48020FFF772FCB2
:1021D00018E01048844209D10121C804FFF76AFCC5
:1021E00000214FF40020FFF765FC0BE00A48844211
:1021F00008D101210805FFF75DFC00214FF4801094
:10220000FFF758FC10BD00000038014000440040BA
:1022100000480040004C00400050004002460020B2
:10222000B1F5007F00D100BF13880B400BB1012036
:1022300000E00020704770B502460024002300250E
:10224000002040F66A16B14200D100BFC1F342152A
:1022500001F01F03012606FA03F3012D02D196892E
:10226000334006E0022D02D1168A334001E0968AFF
:1022700033400C12012606FA04F41688344013B1D8
:102280000CB1012000E0002070BDF0B50346002431
:1022900000260025002040F66A17B94200D100BF91
:1022A0001846C1F3421401F01F06012707FA06F58C
:1022B000012C01D10C3004E0022C01D1103000E0DF
:1022C00014301AB107682F43076002E00768AF4374
:1022D0000760F0BD2DE9F04786B005460E460024A4
:1022E000A24600BFA1460027B08900B100BF2F461B
:1022F0002C8A4CF6FF700440F08804432C82AC8991
:102300004EF6F3100440B0883189084371890843C0
:102310000443AC81AC8A4FF6FF400440B0890443CB
:10232000AC8201A8FFF7F6FB1F48874202D1DDF817
:1023300010A001E0DDF80CA0A88900F4004040B135
:102340000AEBCA0000EB0A1031684900B0FBF1F853
:1023500007E00AEBCA0000EB0A1031688900B0FB05
:10236000F1F86420B8FBF0F004012009642101FBBE
:102370001089A88900F4004040B1322000EBC90068
:10238000B0FBF1F000F00700044308E0322000EB5E
:1023900009106421B0FBF1F000F00F0004432C8120
:1023A00006B0BDE8F087000000380140014688888B
:1023B000C0F308007047C1F308028280704700BF75
:1023C000FEE700000BE000BF0749098801F040016B
:1023D0000029F9D00178044A121D1180401C0178AF
:1023E0000029F0D170470000004800402DE9F84373
:1023F00004460D4606A64FF050080A4F23463A46BB
:1024000050213046009500F00FF8BDE8F883000039
:102410006170692E73656E6976657273652E636F80
:102420006D0000008C6E00082DE9F04FADF5457D84
:102430000446894692461D46CE9F4FF0000B2CB1B4
:10244000BAF1000F02D00DB1002F04DC00200DF511
:10245000457DBDE8F08F4A4621468FA000F012FC72
:1024600023469AA24FF4807185A8CDF8009000F021
:1024700019FC4FF47A639CA29FA185A8FEF716FF72
:1024800020B99EA000F0FEFB0020E0E7A5A000F030
:10249000F9FB5346AEA24FF4007105A8009400F07A
:1024A00001FC05A8FDF778FE0490B6A0049900F0A1
:1024B000E9FBC0A24FF4807185A8049B00F0F2FBF9
:1024C0004FF4FA630022BFA185A8FEF7EFFE20B902
:1024D000BDA000F0D7FB0020B9E7C3A000F0D2FBFD
:1024E00005A8FFF76FFFCBA000F0CCFB0020039006
:1024F0004FF4FA60029019E0D5A1D748FDF724FE09
:1025000020B9D6A1D448FDF71FFE00B112E000208B
:10251000009003E000BF0098401C0090D149009853
:102520008842F7D303986430039000BF0398B0F556
:10253000FA6FE1DB00BFC6A1C748FDF705FE28B969
:10254000C549C9A000F09EFB002080E7D3A000F0A1
:1025500099FBDBA000F096FB0020E2490880E249ED
:102560000880E2A000F08EFBE8A000F08BFB0026C4
:1025700041F27070019025E00020009010E000BF53
:1025800042F210710098B0FBF1F201FB120020B989
:10259000D4480088002800DD06E00098401C009028
:1025A000B04900988842EAD300BF64364FF47A708D
:1025B00096FBF0F100FB116018B93146DFA000F086
:1025C00061FB00BF41F27070864203DAC5480088A3
:1025D0000028D1D0C348008830B941F27071DEA024
:1025E00000F050FB002032E7BE480188E4A000F074
:1025F00049FB00200BE00021009103E000BF00999F
:10260000491C0091974A00999142F7D3401C052834
:10261000F1DBB4480188E4A000F034FBB148B0F825
:102620000080B8F1000F01DA4FF00008B8F5805FC4
:1026300001DB40F6FF780020874901F80800E2A09E
:1026400000F020FBA7480088002812DDE8A182489E
:10265000FDF77AFD0090009828B1E8A000F012FB89
:10266000DDF800B004E0F04800F00CFBDFF8E8B162
:1026700004E0EEA000F006FB0020E8E6BBF1000F4E
:1026800004D05846FDF788FD142804D2F1A000F0CC
:10269000F9FA0020DBE6F3E13E3E3E205765617427
:1026A0006865723A2045737461626C697368696E1B
:1026B000672054435020636F6E6E656374696F6E5C
:1026C0002025733A25640D0A0000000041542B4375
:1026D000495053544152543D22544350222C2225F8
:1026E00073222C2564000000414C5245415920437F
:1026F0004F4E4E45435400004F4B00003E3E3E209F
:10270000576561746865723A2054435020636F6E58
:102710006E656374696F6E206661696C65640D0A2D
:10272000000000003E3E3E20576561746865723AC5
:102730002054435020636F6E6E656374696F6E2022
:102740007375636365737366756C0D0A0000000032
:1027500047455420257320485454502F312E310DB5
:102760000A486F73743A2025730D0A436F6E6E65C5
:102770006374696F6E3A20636C6F73650D0A0D0A9E
:10278000000000003E3E3E20576561746865723A65
:102790002053656E64696E672048545450207265FA
:1027A00071756573742C206C656E6774683D256463
:1027B0000D0A000041542B43495053454E443D25DA
:1027C000640000003E0000003E3E3E2057656174FC
:1027D0006865723A2043495053454E44206661690A
:1027E0006C65640D0A0000003E3E3E205765617432
:1027F0006865723A2053656E64696E672048545468
:1028000050207265717565737420626F64792E2E25
:102810002E0D0A003E3E3E20576561746865723A8F
:102820002048545450207265717565737420736527
:102830006E742C2077616974696E6720666F7220F0
:1028400053454E44204F4B2E2E2E0D0A0000000003
:1028500053454E44204F4B00980600204552524F9E
:102860005200000080FC0A003E3E3E205765617425
:102870006865723A2053454E44204F4B206E6F746A
:1028800020726563656976656421204275666665B8
:10289000723A20252E323030730D0A003E3E3E2023
:1028A000576561746865723A2053454E44204F4B1A
:1028B00020636F6E6669726D65640D0A000000002A
:1028C0003E3E3E20576561746865723A20636C65D0
:1028D0006172696E67206275666665722E2E2E0DB6
:1028E0000A00000052000020500000203E3E3E2022
:1028F000576561746865723A206275666665722014
:10290000636C65617265640D0A0000003E3E3E2006
:10291000576561746865723A2077616974696E679A
:1029200020666F72207365727665722072657370AF
:102930006F6E73652E2E2E0D0A0000003E3E3E2067
:10294000576561746865723A2077616974656420BF
:1029500025646D730D0A00003E3E3E20576561748C
:102960006865723A2054494D454F555421204E6FA9
:10297000206461746120696E2025646D730D0A0006
:102980003E3E3E20576561746865723A204461742A
:1029900061207265636569766564212072785F6C79
:1029A000656E3D25640D0A003E3E3E20576561740C
:1029B0006865723A20427566666572206C656E675E
:1029C00074683D25640D0A003E3E3E2057656174E3
:1029D0006865723A2042756666657220636F6E7430
:1029E000656E743A20252E343030730D0A000000D5
:1029F000485454502F312E31000000003E3E3E20FE
:102A0000576561746865723A20466F756E64204838
:102A100054545020726573706F6E736520737461C7
:102A200072740D0A00000000486E00083E3E3E2011
:102A3000576561746865723A204E4F206461746115
:102A400020726563656976656420617420616C6CD1
:102A5000210D0A003E3E3E20576561746865723A5A
:102A600020496E73756666696369656E742064617A
:102A700074612072656365697665640D0A00000003
:102A800009A000F0FFF83A462946584600F022F81F
:102A900038B97A1E59462846FDF768FB0021781E92
:102AA00029540120D3E400003E3E3E205765617466
:102AB0006865723A20446174612072656365697665
:102AC0006564207375636365737366756C6C790DEB
:102AD0000A0000002DE9F04107460D46164617B1E1
:102AE0000DB1002E02DC0020BDE8F08109A13846BE
:102AF000FDF72AFB04460CB90020F5E7241D721EE1
:102B000021462846FDF732FB0021701E2954012082
:102B1000EAE700000D0A0D0A000000002DE9F04769
:102B200082460E4690461F46DDF820900024BAF1FA
:102B3000000F02D10020BDE8F08726B1B8F1000FE8
:102B400001DD0020307027B1B9F1000F01DD002058
:102B5000387041A15046FDF7F7FA044624B942A166
:102B60005046FDF7F1FA044684B37EB3B8F1000F86
:102B70002CDD3A212046FDF705FB044634B3641CE6
:102B800000E0641C20782028FBD020782228F8D090
:102B9000002511E02078302802DB2078392805DD77
:102BA00020782D2802D020782E2803D114F8010B8C
:102BB000705500E007E06D1CA8F10100A84202DD9D
:102BC00020780028E6D100BF0020705529A150468A
:102BD000FDF7BAFA044624B928A15046FDF7B4FA25
:102BE00004467CB377B3B9F1000F2BDD3A212046C0
:102BF000FDF7C8FA04462CB3641C00E0641C20787E
:102C00002028FBD020782228F8D0002510E020785A
:102C1000222808D020785C2805D020780D2802D002
:102C200020780A2800D10AE014F8010B78556D1CB1
:102C3000A9F10100A84202DD20780028E7D100BFF9
:102C4000002078550EB1307810B91FB1387808B12E
:102C5000012070E700206EE72274656D7065726177
:102C6000747572652200000074656D706572617420
:102C7000757265002274657874220000746578743A
:102C8000000000000FB4054B10B503A9044A0298D8
:102C900000F01EF910BC5DF814FB00006D37000851
:102CA000440000200FB41CB50246002007AC0029E8
:102CB0000BD0491ECDE90021054B6A4621460698F6
:102CC00000F006F9009A002111701CBC5DF814FB9D
:102CD000FF3500080FB4084B10B504A902AA0398E9
:102CE00000F0F6F8044602A9002000F093FC20460C
:102CF00010BC5DF814FB0000153600080048704752
:102D0000580000200148006870470000580000206B
:102D100002E008C8121F08C1002AFAD170477047A4
:102D2000002001E001C1121F002AFBD17047000002
:102D30000149086070470000580000202DE9FF5F3E
:102D400082B00021DDE90430020DDDF840B003431C
:102D500018D044F61050A2F2FF32424315141198D5
:102D600001281FD0A5EB0B00401C5FEA000A4FF0C2
:102D700000064E4FDFF83891B046504615D5CAF1DF
:102D8000000413E0119801244AA3012801D16FEA3D
:102D90000B010298119AC0E90031C0E9024206B065
:102DA000BDE8F09FCBF10000DFE704460021404A78
:102DB000491842EB0450CDE9001012E0E00707D0BB
:102DC00032463B4640464946FDF7DEFC8046894692
:102DD00032463B4610461946FDF7D6FC06460F46DE
:102DE0006410002CEAD1DDE90401DDE90023BAF129
:102DF000000F06DAFDF7C8FC42464B46FDF7C4FC5F
:102E000005E0FDF733FD42464B46FDF72FFD044636
:102E10000E460022284BFDF7B1FD03D84FF0FF30DE
:102E2000014607E00022254B20463146FDF705FC10
:102E3000FDF78BFD102409E0002C0ADB0A22002399
:102E4000FDF70CFB039B30321A55641E50EA010259
:102E5000F2D1641C039AC4F111031444119A012A9B
:102E600003D0012208430DD10AE0084304D000201A
:102E70004FF0110B119072E7A3EB0B056D1E0DE0E7
:102E80005B4504DD4FF0000205F1010504E003DAC3
:102E90004FF00002A5F10105002AECD0029811992B
:102EA000C0E90231C0E9004579E7000000001440A4
:102EB0000000F03F300000000000F0430000E03F61
:102EC00030380A2801D201207047002070470000E6
:102ED0002DE9FF4F95B09B468946064600250FE237
:102EE000252877D100242746F84A0121059400E0DF
:102EF000044316F8013F203B01FA03F01042F7D1DA
:102F000030782A2811D06FF02F033078A0F13002EA
:102F1000092A16D8059A44F0020402EB820203EB58
:102F200042021044761C0590EFE759F8042B0592F5
:102F3000002A03DA504244F40054059044F002049D
:102F4000761C30782E2816D116F8010F44F00404B0
:102F50002A280DD06FF02F023078A0F13003092B12
:102F600009D807EB870302EB4303C718761CF3E786
:102F700059F8047B761C30786C280FD006DC4C287E
:102F800017D068280DD06A2814D104E0742810D016
:102F90007A280FD10DE044F400140AE044F48014C0
:102FA00001E044F440147278824202D104F58014A6
:102FB000761C761C307866280BD013DC582877D026
:102FC00009DC002875D04528F6D04628F4D04728DB
:102FD0001AD19DE118E0632835D0642879D065289E
:102FE00012D195E1702873D008DC6728F1D06928E8
:102FF0006FD06E280DD06F2806D1B5E073282CD085
:10300000752875D0782874D05A46179990476D1C4A
:1030100075E1C4F30250022809D003280DD0D9F875
:10302000001004280DD00D6009F1040967E1D9F8FA
:103030000010EA17C1E90052F6E7D9F800100D8038
:10304000F2E70D70F0E719F8041B8DF8001000206E
:103050008DF80100EA46012003E059F804AB4FF077
:10306000FF3061074FF0000102D40DE008F10101CB
:103070008846B9420FDA8045F8DB1AF808100029B3
:10308000F4D108E008F1010188468142FADB1AF820
:1030900008100029F6D105985B46A0EB08072146E9
:1030A0003846179A00F094FA284400EB080507E028
:1030B0004DE029E10DE01AF8010B5A4617999047A7
:1030C000B8F10108F7D25B4621463846179A13E15A
:1030D00042E00A220092C4F302524FF0000A022A90
:1030E00008D059F804CB032A4FEAEC710AD00DE05E
:1030F00029E02AE009F1070121F00702F2E802C104
:10310000914609E00FFA8CFC4FEAEC71042A03D1D6
:103110004FFA8CFC4FEAEC71002907DA0A460021CD
:10312000DCF1000C61EB02012D2202E0220504D546
:103130002B228DF80420012203E0E20701D0202297
:10314000F7E7904659E00A2102E010220DE0102135
:103150004FF0000A00910BE010224FF0000A44F0FB
:1031600004040827009203E008224FF0000A0092AE
:10317000C4F30252022A05D059F804CB0021032AD5
:1031800008D009E009F1070121F00702F2E802C1C5
:10319000914605E01FFA8CFC042A01D10CF0FF0CCB
:1031A0004FF00008220728D5702806D0009B83F036
:1031B000100353EA0A0305D00EE040228DF80420E4
:1031C000012208E05CEA010206D030228DF80420DA
:1031D0008DF8050002229046009B83F0080353EA15
:1031E0000A030AD15CEA010201D1620705D5302247
:1031F0008DF804204FF001087F1E582804D034A019
:1032000003900EA802900DE036A0F9E75346604601
:10321000009AFDF723F984460398825C0298401EC9
:10322000029002705CEA0100F0D1029806A9081A27
:1032300000F1200A600702D524F4803400E0012761
:10324000574502DDA7EB0A0000E0002000EB0A0171
:10325000009005984144401A0590E00306D45B466F
:103260002146179A059800F0B3F90544002706E0B7
:1032700001A85A46C05D179990476D1C7F1C4745B1
:10328000F6DBE0030CD55B462146179A059800F063
:103290009FF9054404E030205A46179990476D1C69
:1032A0000099481E00900029F5DC08E00298029978
:1032B0005A460078491C0291179990476D1CBAF143
:1032C0000001AAF1010AF1DC65E100000928010012
:1032D000303132333435363738396162636465668C
:1032E000000000003031323334353637383941424E
:1032F000434445460000000000F058F90544761CA0
:10330000307800287FF4ECAD19B02846BDE8F08F86
:10331000620700D4062709F1070222F0070CFCE837
:103320000223E14603F000485FEA080C02D00FF2E6
:10333000702C0DE05FEA045C02D50FF2682C07E008
:103340005FEAC47C02D00FF2602C01E0AFF2700C97
:103350004FF0FF3823F00043CDF850C065280CD063
:1033600006DC452809D046281DD047283DD13DE040
:10337000662818D067287ED138E00021112F01DBA4
:10338000112000E0781CCDE9000106A90EA8FFF786
:10339000D5FCDDE90F010E9A03910021009207F19F
:1033A000010A04914DE04FF000400097CDE9011073
:1033B00006A90EA8FFF7C2FCDDE90F0203920E9BDF
:1033C00011990022DDF80CA00093049211B9791C28
:1033D00000EB010AB7EB0A0004D4C0F1FF3007F19B
:1033E000010A0490AAEB0700019044E0012F00DAE3
:1033F00001270021112F01DD112000E03846CDE921
:10340000000106A90EA8FFF799FCDDE90F010E9A4D
:103410000391002104910092BA4621070CD403992C
:10342000514500DA8A46BAF1010F05DD009AAAF18A
:103430000101515C302908D0B84202DA10F1040FC2
:1034400006DA0121CDE9011015E0AAF10101E9E751
:10345000002805DC049901440491AAEB000102E074
:10346000411C514500DD8A460499401A401C0190D8
:103470004FF000400290200704D40198504501DB32
:10348000CDF8048000208DF84F0002980DF14F0711
:10349000B0F1004F25D02B200E9002984FF002087B
:1034A00000280CDA404202902D200E9007E00A21FD
:1034B0000298FCF7BDFF3031029007F8011DB8F10A
:1034C0000001A8F10108F2DC02980028EFD1791E72
:1034D0000E980870307800F0200040F0450007F8A2
:1034E000020D12A8C01B00F107081498007800B163
:1034F000012000EB0A01019801EBE07105984144BD
:10350000401A401E0590E00306D45B462146179AF8
:10351000059800F05DF805441498007818B15A46F3
:10352000179990476D1CE00324D55B462146179AF6
:10353000059800F04DF805441CE00498002807DBCE
:10354000DDE90301884203DD0098405C179901E042
:10355000179930205A469047049805F10105401C00
:1035600004900198401E019004D12E205A461799CC
:1035700090476D1CBAF10001AAF1010ADDDC05E0FB
:1035800017F8010B5A46179990476D1CB8F10001C6
:10359000A8F10108F4DC5B462146179A0598ABE6D2
:1035A0002D0000002B000000200000002DE9F0415C
:1035B000044600251E461746880404D405E0394613
:1035C0002020B0476D1C641EF9D52846BDE8F08167
:1035D0002DE9F041044600251E469046C80301D55A
:1035E000302700E02027880404D505E0414638460E
:1035F000B0476D1C641EF9D52846BDE8F0814A68C5
:10360000002A06D00A68531C0B6010704868401EE0
:10361000486070470A68531C0B601070704730B5E3
:1036200083B00446FFF76EFB05460020CDE900009D
:10363000024621466846FCF75EFF2846FFF778FB06
:10364000DDE9000103B030BD2DE9F04106460F462B
:10365000642430E01C4890F80802012826D11BA001
:10366000FFF710FB002506E01748415D1DA0FFF79E
:1036700009FB681CC5B21448D0F80402A842F3D86C
:103680001148D0F8041219A0FFF7FCFA0E48007890
:10369000C12809D10C4800790B49C97840EA0120BA
:1036A00038800948007A3070BDE8F081601EC4B2ED
:1036B0000A2000F02BF8002CCCD114B90DA0FFF794
:1036C000E1FA00BFF0E70000800200204C6F726159
:1036D000207265672072656365697665202D3E5BA3
:1036E0000000000030782530327820005D28256405
:1036F000290D0A006C6F7261207265672072656324
:1037000065697665206661696C0A000030B504461B
:10371000002504E04FF47A7000F004F86D1CA54217
:10372000F8D330BD70B5034600224FF0E02675692E
:103730000D4E367803FB06F44FF0E026B16910E039
:103740004FF0E026B06988420BD0884202D20E1AB0
:10375000324402E02E1A0E4432440146A24200D303
:1037600000E0EDE700BF70BD4000002000BF054A4B
:10377000128802F04002002AF9D0C2B2014B1B1D90
:103780001A80704700380140ADF52A7D0020A490D2
:103790004FF4A060FEF73EF84820FEF7D1FA4FF450
:1037A000E13000F0F5FE8748FFF76CFA86A0FFF7DE
:1037B00069FA4FF4165000F049FFFDF757FCFEF789
:1037C00033F886A200211020FEF7F8F887A0FFF753
:1037D00059FA8BA200216420FEF7F0F8FDF7B8FF3C
:1037E00079A0FFF74FFAFDF7E7FBFEF773FA0A201F
:1037F000FFF78CFF20218348FDF79AFF002827D18F
:1038000010218048FDF794FF012821D17EA0FFF709
:1038100039FAFDF701FC03218448FDF701FC8449D6
:103820008448FFF711FF834802788148018882A00D
:10383000FFF728FA7F4803787D48028885A18A48E7
:10384000FFF748FA884A02210020FEF7B7F802E0A5
:1038500086A0FFF717FAFDF7DFFB6420FFF756FF9E
:10386000FEF748FA6420FFF751FFFDF787FB40F2AF
:10387000E73141F61F40FEF7CBFA86A0FFF702FAC8
:10388000002410E04FF400418748FDF75AFFC8209C
:10389000FFF73CFF4FF400418348FDF754FFC82079
:1038A000FFF734FF641C032CECDB80A0FFF7EAF980
:1038B000FDF780FD4FF47A70FFF728FFFDF7A4FCB9
:1038C00000285ED07FA0FFF7DDF982A0FFF7DAF9CC
:1038D00006E08AA0FFF7D6F94FF47A70FFF716FFDB
:1038E0000020FDF7A5FD0028F3D08CA0FFF7CAF952
:1038F0004FF4FA70FFF70AFF90A0FFF7C3F9FDF746
:1039000023FD4FF4FA70FFF701FF91A0FFF7BAF91A
:103910009DA0FFF7B7F9A2A1A4A0FDF761FD60B1DA
:10392000A6A0FFF7AFF94FF47A70FFF7EFFEAEA253
:1039300007210020FEF742F831E0B0A0FFF7A2F91E
:10394000B5A0FFF79FF9BF49BFA0FFF79BF9C44897
:103950000188C4A0FFF796F9C8A207210020FEF74E
:103960002DF8CBA0FFF78EF9CEA0FFF78BF9D3A0EF
:10397000FFF788F9D7A0FFF785F9DDA0FFF782F9F7
:103980000DE0E2A0FFF77EF9E7A207210020FEF795
:1039900015F8EAA0FFF776F9F2A0FFF773F969E2EC
:1039A000F8480068401CF749086008460068F64976
:1039B000B0FBF1F201FB120010B9F4A0FFF762F9BD
:1039C000FF48FFE11C6C00084C4F524120426F61E0
:1039D0007264204C4544204F4B0D0A004C6F5261DD
:1039E000E5BC80E58F91E69DBF0000004C4F524141
:1039F00020426F617264204C4344204F4B0D0A00FB
:103A00005B425D00000C01400D0A204D31203D203D
:103A100031203B204D30203D2030205265676973B6
:103A2000746572206D6F6465200D0A002C00002003
:103A30002A000020280000206C6F726120736974D6
:103A4000653A252378206368616E6E656C3A25239C
:103A5000780D0A00416464723A2530325820436878
:103A60003A253032580000005C0000200D0A204D3D
:103A700031203D20303B204D30203D2030205472FD
:103A8000616E73706172656E74206D6F6465200D78
:103A90000A00000054657374696E67204C45442E1B
:103AA0002E2E0D0A00000000000801404C45442065
:103AB0007465737420636F6D706C657465640D0A52
:103AC0000000000045535038323636204154204F14
:103AD0004B0D0A0053657474696E67204553503866
:103AE00032363620746F2053746174696F6E206DA6
:103AF0006F64652E2E2E0D0A000000004D6F646568
:103B000020736574206661696C65642C207265742D
:103B10007279696E672E2E2E0D0A0000537461743F
:103B2000696F6E206D6F64652073657420737563B3
:103B30006365737366756C6C790D0A00456E61621E
:103B40006C696E6720444843502E2E2E0D0A0000EB
:103B5000417474656D7074696E6720746F20636F53
:103B60006E6E65637420746F2057694669206E65B8
:103B700074776F726B3A205869616F6D6931325397
:103B800050726F0D0A00000050617373776F72649A
:103B90003A20323530303534353468750D0A00003E
:103BA0003235303035343534687500005869616F0E
:103BB0006D6931325350726F0000000053756363BA
:103BC00065737366756C6C79206A6F696E656420C5
:103BD000576946693A205869616F6D6931325350AF
:103BE000726F0D0A00000000576946693A20436F62
:103BF0006E6E656374656420202000004553503864
:103C0000323636206A6F696E204150206661696CD9
:103C100065640D0A000000004572726F723A20431D
:103C20006F756C64206E6F7420636F6E6E65637465
:103C300020746F2057694669206E6574776F726BC8
:103C40000D0A0000980600204553503832363620C1
:103C5000726573706F6E73653A2025730D0A0000EC
:103C600052000020526573706F6E7365206C656E34
:103C70006774683A2025640D0A0000005769466998
:103C80003A20436F6E6E65637420457272000000C7
:103C9000506F737369626C6520726561736F6E73C8
:103CA0003A0D0A002D20496E636F727265637420AD
:103CB00070617373776F72640D0A00002D20577264
:103CC0006F6E67206E6574776F726B206E616D65C5
:103CD0000D0A00002D205765616B207369676E61C6
:103CE0006C20737472656E6774680D0A00000000C2
:103CF0002D2045535038323636206D6F64756C6513
:103D00002069737375650D0A000000004553503833
:103D1000323636206E6F7420726573706F6E646910
:103D20006E670D0A00000000576946693A204D6F22
:103D300064756C6520457272202000004553503830
:103D4000323636206D6F64756C6520636F6D6D75EE
:103D50006E69636174696F6E206572726F720D0AAD
:103D600000000000436865636B20686172647761DE
:103D7000726520636F6E6E656374696F6E730D0A92
:103D8000000000003C00002020A107003E3E3E2035
:103D90004D61696E206C6F6F702072756E6E696E0A
:103DA000672C2077616974696E6720666F72204C9A
:103DB0004F524120646174612E2E2E0D0A000000C6
:103DC0008002002090F80802012878D10020F949EB
:103DD00081F80802A39003E000BFA398401CA390C1
:103DE000F549A3988842F7D3F248D0F80412F3A01B
:103DF000FEF748FF002706E0EE48C15DF8A0FEF799
:103E000041FF781CC7B2EB48D0F80402B842F3D89F
:103E1000F4A0FEF737FF00240025E649D1F804128C
:103E2000481E11E0E349095C2C290CD1691CCDB274
:103E3000042D08D1DF49D1F80422411C8A4201D95E
:103E4000DC4A541802E0401E0028EBDA00BF94B9A7
:103E5000E648FEF717FFD7480078302805DBD5483D
:103E60000078392801DCD34C05E0E148FEF70AFF71
:103E7000FDF7D2F8F6E22146DEA0FEF703FFE2A14D
:103E80002046FCF791F9A590DFA10020FCF78CF902
:103E9000A690DDA10020FCF787F9A790DAA1002009
:103EA000FCF782F9A890A59828B1A69818B1A79810
:103EB00008B1A898F0B9A89810B1A89801E0D0E28C
:103EC000D2A00090A79808B1A79800E0CFA0034621
:103ED000A69808B1A69800E0CCA00246A59808B123
:103EE000A59800E0C9A00146CA48FEF7CBFEFDF741
:103EF00093F8B7E2A5980078302803DBA5980078FE
:103F0000392808DDA59802781146C348FEF7BAFEA5
:103F1000FDF782F8A6E2A798FFF781FB0746FCF7BA
:103F200056FA0646A898FFF77AFB0746FCF74FFAC1
:103F300081463046FCF738FA074688464846FCF783
:103F400033FA8DE88301B548A69AA599FEF79AFE43
:103F50001821B348FCF7EDF8A498E8B9A598FCF748
:103F600045F9A190FCF717FAAE49A290FCF7A3F926
:103F700083464FF08B41FCF7D0F98246FCF714FAE8
:103F80000746A5983A460B46A7A10090A448FEF71D
:103F9000A1FE0120A4901DE0A698FCF727F9834616
:103FA000FCF7F9F982469F49FCF785F980464FF006
:103FB0008B41FCF7B2F90746FCF7F6F9A191A09006
:103FC000A69800900B469CA19548A09AFEF782FE09
:103FD0000020A4909C494846FCF720FA04D3002115
:103FE0004846FCF711FA0DD24846FCF7DDF90746C2
:103FF0003A460B4695A0FEF745FE4FF48050A04987
:10400000086054E09F493046FCF708FA0ED84FF498
:1040100080509B49091D08603046FCF7C5F90746EA
:104020003A460B4698A0FEF72DFE40E0A4493046E4
:10403000FCF7EAF90ED84FF480509149091D086049
:104040003046FCF7B1F907463A460B469DA0FEF70D
:1040500019FE2CE0A9494846FCF7E0F90ED84FF4C8
:1040600080508749091D08604846FCF79DF90746BE
:104070003A460B46A2A0FEF705FE18E04FF081413C
:104080004846FCF7C1F90ED84FF480507C49091D11
:1040900008604846FCF788F907463A460B46A6A052
:1040A000FEF7F0FD03E04FF4805075490860AFA2C1
:1040B00006210020FDF782FC594A06210020FDF769
:1040C0007DFC18215648FCF734F84846FCF76CF99B
:1040D000074688463046FCF767F9824652460B464B
:1040E000A7A14F48CDE90078FEF7F4FD4C4A042122
:1040F0000020FDF763FCFCF78FFF4FF4007123A84D
:10410000FCF717F820211BA8FCF713F840210BA897
:10411000FCF70FF8B246A0495046FCF77FF946D8A5
:1041200049495046FCF770F9F9D89CA0FEF7AAFD62
:104130004FF4007123A8FEF759F9002838D0A1A048
:10414000FEF7A0FD40200BAB20221BA9009023A866
:10415000FEF7E4FC00282CD01BA8FFF760FA074606
:10416000FCF735F90A9051460A98FCF79EF8834609
:1041700000215846FCF748F901D28BF0004B584615
:10418000FCF712F9074688460A98FCF70DF9CDE9C5
:1041900008015046FCF708F9CDE906010BA8CDE966
:1041A00002780490DDE90801CDE9000126E14EE145
:1041B00049E144E180020020803202000D0A3D3DC9
:1041C0003D5261772072656365697665642064613C
:1041D00074615B25642062797465735D3A20000028
:1041E000256300003D3D3D0D0A000000D46C000831
:1041F000B46D00080D0A5573696E672064617461BF
:104200003A2025730D0A00002C0000004E554C4C3E
:1042100000000000006E00085C6D0008846C00085F
:104220005C00002033335340414443313A252E3261
:1042300066562C2573000000414443323A252E3245
:1042400066562C25730000000000C8425761726E4C
:10425000696E673A2048756D696469747920696E82
:1042600076616C69642028252E3366292C20736BB7
:10427000697070696E6720616C61726D0D0A000073
:104280001008014000000C420D0A54656D70657203
:10429000617475726520746F6F2068696768202883
:1042A000252E31664329212042757A7A6572206174
:1042B0006C61726D20737461727465640D0A000024
:1042C000000070410D0A54656D70657261747572FD
:1042D0006520746F6F206C6F772028252E31664320
:1042E00029212042757A7A657220616C61726D2095
:1042F000737461727465640D0A0000000000A042CE
:104300000D0A48756D696469747920746F6F20684F
:104310006967682028252E316625252921204275C8
:104320007A7A657220616C61726D20737461727447
:1043300065640D0A000000000D0A48756D69646926
:10434000747920746F6F206C6F772028252E31666A
:10435000252529212042757A7A657220616C617267
:104360006D20737461727465640D0A002020202032
:1043700020202020202020202020202000000000BD
:1043800054656D703A252E3166432048756D693A43
:10439000252E316625250000000048C20D0A3E3E4C
:1043A0003E205374617274696E6720746F20676574
:1043B00074207765617468657220646174612E2E63
:1043C0002E0D0A003E3E3E205765617468657220DE
:1043D0004150492063616C6C20737563636573732E
:1043E00066756C2C207374617274696E6720746FCB
:1043F0002070617273652E2E2E0D0A001AA0DDE961
:104400000623FEF73FFC4FF081415846FCF706F8C3
:104410000AD200F0B3F824A205210020FDF7CEFA5D
:1044200025A0FEF72FFC09E000F09EF82EA2052142
:104430000020FDF7C3FA30A0FEF724FC10E039A0FD
:10444000FEF720FC0CE03FA0FEF71CFC08E0504605
:10445000FBF7AAFF07463A460B464248FEF712FC16
:1044600000BF00BFFFF79CBA4C6F63616C205465BE
:104470006D703A20252E3166432C20576561746893
:1044800065722054656D703A20252E3166432C20CC
:10449000446966663A20252E3166432C205465789F
:1044A000743A2025730D0A004C4544313A4F564565
:1044B00052204449464600004C454431204F4E208E
:1044C0002D2054656D706572617475726520646924
:1044D00066666572656E63652065786365656465AB
:1044E000642034430D0A00004C4544313A4E6F724B
:1044F0006D616C20202020004C454431204F464601
:10450000202D2054656D706572617475726520642C
:104510006966666572656E6365206E6F726D616C4B
:104520000D0A00003E3E3E205765617468657220AA
:1045300064617461207061727365206661696C6585
:10454000640D0A003E3E3E20576561746865722026
:104550004150492063616C6C206661696C65640D33
:104560000A000000186D000810B54FF40041024821
:10457000FDF7E9F810BD00000008014010B54FF448
:1045800000410248FDF7DDF810BD000000080140C1
:1045900010B586B00446012144F20400FDF79AFAF2
:1045A0002848FDF7EDFD4FF40070ADF8140003202E
:1045B0008DF8160018208DF8170005A92248FCF781
:1045C000E3FF4FF48060ADF8140048208DF8170029
:1045D00005A91D48FCF7D8FF01940020ADF808009C
:1045E000ADF80A00ADF80C00ADF810000C20ADF8E5
:1045F0000E0001A91348FDF76DFE01211148FDF7DA
:10460000B2FD012240F225510E48FDF73EFE012287
:1046100040F224410B48FDF738FE40210948FDF7E0
:1046200099FD25208DF8000003208DF801008DF8FC
:10463000020001208DF803006846FDF7B3F806B0CC
:1046400010BD0000003801400008014010B586B0E0
:10465000044601210420FDF73DFA01214804FDF73D
:1046600019FA2548FDF78CFD0420ADF8140003204D
:104670008DF8160018208DF8170005A91F48FCF7C3
:1046800083FF0820ADF8140004208DF8170005A959
:104690001A48FCF779FF01940020ADF80800ADF846
:1046A0000A00ADF80C00ADF810000C20ADF80E00BB
:1046B00001A91148FDF70EFE01210F48FDF753FD3A
:1046C000012240F225510C48FDF7DFFD012240F2A6
:1046D00024410948FDF7D9FD26208DF8000000206F
:1046E0008DF8010001208DF802008DF80300684666
:1046F000FDF758F806B010BD004400400008014026
:104700000B49D1F80412B1F5007F04D30021084A07
:10471000C2F804120AE00649D1F80422D1F80412C2
:10472000491C034BC3F80412194688547047000013
:10473000800200200000000000000000002F0000A8
:1047400000000700070000147F147F1400242A7F54
:104750002A120062640813230036495522500000D3
:104760000503000000001C224100000041221C0043
:104770000014083E08140008083E0808000000A0C5
:1047800060000008080808080000606000000020C1
:1047900010080402003E5149453E0000427F40009F
:1047A000004261514946002141454B310018141225
:1047B0007F10002745454539003C4A4949300001F2
:1047C0007109050300364949493600064949291E41
:1047D00000003636000000005636000000081422A3
:1047E00041000014141414140000412214080002A3
:1047F0000151090600324959513E007C1211127CC8
:10480000007F49494936003E41414122007F4141F4
:10481000221C007F49494941007F09090901003EE6
:104820004149497A007F0808087F0000417F410024
:10483000002040413F01007F08142241007F40409A
:104840004040007F020C027F007F0408107F003E82
:104850004141413E007F09090906003E4151215E68
:10486000007F091929460046494949310001017F65
:104870000101003F4040403F001F2040201F003FFB
:104880004038403F006314081463000708700807AD
:1048900000615149454300007F41410000552A55C0
:1048A0002A55000041417F0000040201020400403B
:1048B000404040400000010204000020545454785D
:1048C000007F48444438003844444420003844447D
:1048D000487F00385454541800087E09010200181B
:1048E000A4A4A47C007F080404780000447D400058
:1048F000004080847D00007F102844000000417F3C
:104900004000007C04180478007C08040478003817
:104910004444443800FC242424180018242418FC9F
:10492000007C0804040800485454542000043F4408
:104930004020003C4040207C001C2040201C003CCB
:104940004030403C004428102844001CA0A0A07C1B
:10495000004464544C441414141414140000000053
:10496000000000000000000000000000000000F84F
:1049700000000000000000333000000000100C06B2
:10498000100C0600000000000000000040C078404D
:10499000C0784000043F04043F040400007088FC19
:1049A00008300000001820FF211E0000F008F00071
:1049B000E018000000211C031E211E0000F00888E2
:1049C000700000001E2123241927211010160E004C
:1049D000000000000000000000000000000000E0F7
:1049E000180402000000000718204000000204180C
:1049F000E00000000040201807000000404080F068
:104A0000804040000202010F01020200000000F09D
:104A1000000000000101011F010101000000000071
:104A20000000000080B070000000000000000000E6
:104A3000000000000001010101010101000000006F
:104A40000000000000303000000000000000000006
:104A500080601804006018060100000000E01008E3
:104A60000810E000000F102020100F00001010F8B8
:104A7000000000000020203F2020000000700808F7
:104A80000888700000302824222130000030088877
:104A9000884830000018202020110E000000C0209F
:104AA00010F8000000070424243F240000F80888C0
:104AB000880808000019212020110E0000E010884D
:104AC00088180000000F112020110E00003808087F
:104AD000C83808000000003F00000000007088088F
:104AE00008887000001C222121221C0000E0100810
:104AF0000810E0000000312222110F00000000C069
:104B0000C000000000000030300000000000008005
:104B100000000000000080600000000000008040F5
:104B2000201008000001020408102000404040400E
:104B30004040400004040404040404000008102061
:104B400040800000002010080402010000704808A6
:104B50000808F0000000003036010000C030C8280E
:104B6000E810E0000718272423140B000000C038C9
:104B7000E0000000203C23020227382008F8888843
:104B800088700000203F202020110E00C03008084F
:104B900008083800071820202010080008F8080826
:104BA0000810E000203F202020100F0008F888881F
:104BB000E8081000203F20202320180008F88888EB
:104BC000E8081000203F200003000000C030080863
:104BD0000838000007182020221E020008F80800EC
:104BE0000008F808203F210101213F20000808F8B3
:104BF000080800000020203F2020000000000808D6
:104C0000F8080800C08080807F00000008F888C095
:104C100028180800203F20012638200008F8080046
:104C200000000000203F20202020300008F8F8007D
:104C3000F8F80800203F003F003F200008F830C08F
:104C40000008F808203F200007183F00E01008087F
:104C50000810E0000F10202020100F0008F80808AE
:104C60000808F000203F210101010000E0100808C1
:104C70000810E0000F18242438504F0008F88888E6
:104C800088887000203F2000030C302000708808C6
:104C9000080838000038202121221C00180808F8D4
:104CA000080818000000203F2000000008F8080055
:104CB0000008F808001F202020201F000878880026
:104CC00000C83808000007380E010000F80800F896
:104CD0000008F800033C0700073C03000818688040
:104CE0008068180820302C03032C30200838C800B6
:104CF000C83808000000203F200000001008080805
:104D0000C83808002038262120201800000000FEA6
:104D1000020202000000007F40404000000C30C052
:104D200000000000000000010638C000000202027E
:104D3000FE000000004040407F0000000000040230
:104D4000020204000000000000000000000000005B
:104D5000000000008080808080808080000202044B
:104D60000000000000000000000000000000808043
:104D7000808000000019242222223F2008F80080B1
:104D800080000000003F112020110E000000008074
:104D900080800000000E1120202011000000008003
:104DA0008088F800000E112020103F200000808035
:104DB00080800000001F222222221300008080F049
:104DC000888888180020203F202000000000808074
:104DD00080808000006B94949493600008F80080B9
:104DE00080800000203F210000203F200080989814
:104DF000000000000020203F202000000000008074
:104E00009898000000C08080807F000008F80000B3
:104E100080808000203F24022D302000000808F808
:104E2000000000000020203F2020000080808080C3
:104E300080808000203F20003F20003F8080008055
:104E400080800000203F210000203F200000808063
:104E500080800000001F202020201F008080008014
:104E60008000000080FFA12020110E0000000080C3
:104E700080808000000E112020A0FF8080808000B4
:104E80008080800020203F212000010000008080E1
:104E9000808080000033242424241900008080E0D6
:104EA000808000000000001F2020000080800000A3
:104EB00000808000001F202020103F208080800084
:104EC0000080808000010E30080601008080008094
:104ED000008080800F300C030C300F0000808000B9
:104EE000808080000020312E0E31200080808000E4
:104EF0000080808080818E70180601000080808094
:104F0000808080000021302C222130000000000031
:104F1000807C020200000000003F404000000000D2
:104F2000FF00000000000000FF0000000002027C03
:104F3000800000000040403F00000000000601012A
:104F4000020204040000000000000000BDDA044476
:104F500044445F44C44444445F44C4040400000027
:104F600000000000FF000008100807000000B5E383
:104F70000000C04040407F48484848C8080800003A
:104F800080403704041464041464040710E0000033
:104F9000CEC21060028C0000FE9292929292FE00AD
:104FA000000004047E01407E42427E427E42427EF8
:104FB0004000B6C80000FC242424FC252624FC2440
:104FC0002424040040308F80844C55252525554CE1
:104FD00080808000CAAA1060028C00FE9292929299
:104FE0009292FE00000004047E014448507F40403D
:104FF0007F5048444000B6C80000FC242424FC250F
:105000002624FC242424040040308F80844C552521
:105010002525554C80808000CCE5008060F8071085
:105020001010D0FFD01010100000010000FF100879
:10503000040B08FF080B04081000CEC21060028C9D
:105040000000FE9292929292FE00000004047E0103
:10505000407E42427E427E42427E4000B7E70000F0
:10506000FE021222C202C23202FE00000000806074
:105070001F0020100C030C30000F3040F800CBD97B
:10508000404042CC0004F49494FF9494F404000053
:105090000040201F20484442415F414244484000B4
:1050A000CFF200F808080CCA494848C8080808F8B0
:1050B000000000FF0000001F0808081F0040807F5C
:1050C0000000B6AB0008884828180FE80808080850
:1050D00008080000002011090541817F0101050930
:1050E00011200000CEF70202E22222FE222222FE3E
:1050F0002222E20202000000FF48444340404043B5
:105100004444FF000000C4CF04E4242464A4243FEA
:1051100024A4642424E4040000FF00080909097F92
:1051200009090948807F0000B1B10020202020FF3C
:10513000000000FF4020100800002060201010FF39
:105140000000003F404040407800B9E24040424407
:1051500058C0407F40C050484640400080804020BA
:1051600018070000003F404040407800C7BF02E2FF
:1051700022223E00809E9292F292929E80000043F4
:1051800082423E40474444447F444454E700B5E7EC
:105190000000F888888888FF88888888F8000000E0
:1051A00000001F080808087F888888889F80F00012
:1051B000D1B90000FE0282828282FA8282828282D9
:1051C000020080601F40404040407F4040445840C3
:1051D0004000C1F71060028C004464544D464454B2
:1051E00064C4040004047E0180403E0000FE000010
:1051F0007E80E000B9A6080808F80808081010FF2B
:10520000101010F000001030101F088848300E01F8
:105210004080403F0000C2CA0014A4442434AD665C
:1052200024940444A414000008090808090909FD8D
:1052300009090B0808090800CDC1000040404040A2
:1052400040FF40404040400000004040404040405F
:10525000407F4040404040404000C8C01010FF1018
:105260000082BAEABA83BAEABA82000008180F04C8
:10527000484A2AFF8A4A1A2F5A8A8800BFAA80827F
:105280008282FE8282828282FE828282800000800E
:1052900040300F0000000000FF0000000000B9D8FF
:1052A00000001011161010F0101014131000000060
:1052B0008181414121110D030D1121414181810065
:1052C000D7D4000000F8888C8A89888888F8000084
:1052D0000000000000FF44444444444444FF0000F4
:1052E0000000B6AF4044C4444444401010FF1010C6
:1052F00010F00000103C131014B840300E01408034
:10530000403F0000C4A31010D0FF9014E4AFA4A449
:10531000A4AFE4040000040300FF00894B2A1A0E26
:105320001A2A4B888000CABD10109090909090105F
:1053300010FF101011161000002060203F101010F8
:1053400000030C102040F800B7E70000FE02122214
:10535000C202C23202FE0000000080601F00201066
:105360000C030C30000F3040F800C9C80000FC24CA
:105370002424252624242424243C000040300F210A
:105380001549817F00211549817F0000CBAE0020A7
:105390002020A06000FF6080402018000000201046
:1053A00008060140807F0001020408101000B1C30C
:1053B00042422212FA969292929292F202020200D3
:1053C000404424140C44807F0408102824424000E8
:1053D000D7C71060028C00F8080808FF080808F812
:1053E000000004047E0120632121213F2121293373
:1053F0006000B6C80000FC242424FC252624FC24DC
:105400002424040040308F80844C55252525554C9C
:1054100080808000BEE0003E22E2223E00FE22228A
:10542000222222E20200203F201F1111007F44446B
:10543000444444474000C0EB040404F484D4A5A6CB
:10544000A4D484F40404040000FE0202123A1613E9
:10545000121A3242827E0000D3D004040484E43C59
:105460002724242424E40404040004020100FF0986
:1054700009090949897F00000000C8CB000000002D
:105480000000C03FC000000000000000804020106D
:105490000C03000000030C1020408000CEDE004012
:1054A000424242C27E42C2424242404000008040EC
:1054B00020100C0300003F40404040700000C8CB6B
:1054C000000000000000C03FC0000000000000001D
:1054D000804020100C03000000030C1020408000CE
:1054E000CCE5008060F807101010D0FFD01010102D
:1054F0000000010000FF1008040B08FF080B04085F
:105500001000BAEC2030AC63201800040404FC0442
:1055100004040000226722121212404040407F40E3
:1055200040404000CDE200C0301F1010F00000FFEE
:10553000204080000000814021120C03000000FF89
:10554000000000030000D7B400083000FF20202036
:1055500020FF2020222C200004040201FF80403084
:105560000E01061820408000CCAC00048484442442
:10557000548F1424448484040000413900003C40CA
:1055800040424C40407004093100C2FA1060028C65
:105590000024242FE42424E42F24240004047E0186
:1055A00000FF11090719090749917F00CEB48080D7
:1055B0008888888888FF888888888880800020205C
:1055C0001008040201FF0102040810202000CDB0E1
:1055D0001090FF9010E2222A2AF22A2622E00000F0
:1055E0000601FF0001FF0909097F0949897F0000C1
:1055F000B8C700042424252624FC242625242404BA
:1056000000008181F98989F9898989F98989F98174
:105610008100D6D8101014D4545454FC525252D392
:1056200012101000404050575555557F555555574D
:1056300050404000C1BF202020BEAAAAAAAAAAAA00
:10564000AABE20202000008080AFAAAAAAFFAAAA92
:10565000AAAF80800000BEAE00101010FF10101026
:105660001010FF1010100000028242320F020202DE
:105670000202FF0202020200D7DB2030AC633000DE
:105680000C242425262424240C0022672212122014
:10569000110D41817F0105093100BACF4040202022
:1056A000504844434448502020404000000000FE41
:1056B00042424242424242FE00000000C7E3806094
:1056C000F80700FC404002F21AD612F20200000075
:1056D000FF00001F0804804F300F204F8000D0B122
:1056E00020102824E32428100022CC00FF00000012
:1056F00020114D817F01051900020202FF01010006
:10570000BDC72010E824272424E424342C20E00002
:10571000000080601F090909097F090949897F0084
:105720000000CBAE00202020A06000FF6080402061
:1057300018000000201008060140807F00010204CC
:1057400008101000CEBB008060F8071090101116F2
:105750001010D0100000010000FF4040415E4040AA
:10576000704E41404000BCD70000FE22222222FEA3
:1057700022222222FE00000000000702020202FF95
:105780000202020207000000CDE9807000FF10183D
:105790000C242425262424140C008060180708906B
:1057A00041310F01013F41417100CEAC2030AC636B
:1057B000205820F84F4849FA48480800226722122A
:1057C000121200FF2222223F22222000D0DE40209F
:1057D000F807F0A0904C5724A4544C80800000009F
:1057E000FF001F8092524929241208000000D5FDB5
:1057F000000202C2020202FE828282828202000053
:105800004040407F4040407F40404040404040005A
:10581000B3A3201808EAACA8A8AFA8A8ACEA082847
:10582000180000003E02020202FF020212221E00C5
:105830000000E3D000F80122A0A2A222FE22AA3298
:1058400002FE000000FF0010130A4B20170C133853
:1058500080FF0000D6B5008060F80704E4A4A4BF70
:10586000A4A4E4040000010000FF40407F4A4A4A2B
:105870004A4A7F404000B7E400F808FF08F88090EB
:105880004C57A4544C8480002063211F1139101000
:105890001515FF1515101000C3F900FC0404FC00D9
:1058A00000FC0416650484FC0000000F04040F00D3
:1058B00010131212125292423E00D1CC807000FF9F
:1058C0001008FE424242FA424242FE00806018073F
:1058D0000810FF50484641424C40FF00CEED100CEE
:1058E000055555D5057F0555555505140C00101067
:1058F000108AA96B352525ABE90810101000BFC927
:10590000000202F2121212F2020202FE020202006F
:105910000000000F0404040F0040807F000000001E
:10592000C8BC807000FF10289827C43C907F90125C
:105930001400806018070898640328C621C0112647
:10594000C800C6F820104C4754545454545454D4EE
:105950000404000000000000000000000000000F30
:105960003040F000CFDF2030AC632018809090FFF3
:1059700090494A48400022672212121240402013E8
:105980000C142241F800C2B7003E22E2223E001071
:10599000885724548C000000407E403F22220001A2
:1059A000FE424242FE010100B9CA101010FF101061
:1059B0005020D8171010F0101000007F2121217FF7
:1059C00080402116081621408000D5CF00FE02221B
:1059D000DA0610D2565A535A56D2100000FF081059
:1059E000080710171515FD1515171000BCEC101041
:1059F000D0FF905020504C434C50204040000403B6
:105A000000FF00414458414E605847404000B2E218
:105A10001060028C00FE02F202FE00F800FF00009F
:105A200004047E018047300F10270047807F00006C
:105A3000C5A81060028C201808C838CF080828981C
:105A4000000004047E01040201FF4021060A112027
:105A50004000A1E6060909E6F80C0402020202026F
:105A6000041E0000000000071F302040404040405E
:105A700020100000B4B0100CC4544C64D54644440B
:105A80004C54C4140C000000FF4044625549554377
:105A90004040FF000000BBA7000000F80808090E06
:105AA00008080808F80000000080601F01010101DB
:105AB0000101010103000000D3EA02E222222222B6
:105AC00022FE2222222222E2020000FF000009120E
:105AD000007F00091240807F0000B5CE1060028C6C
